:03000000022310C8
:0C231000787FE4F6D8FD75812102235788
:10239C00676F20676F20676F200D0A006E6F7720C4
:1023AC0070757368006F6C656420656E64200D0A2F
:1023BC00004D692031310071717171717171710051
:1023CC0034372E39312E382E313431003138383300
:1023DC00000D0A206E6F77206920616D2064656C9A
:1023EC006179203130207365636F6E64200D0A00B3
:1023FC006E6F772070757368203A20000D0A77692C
:10240C00666973656E6462756666206973202573F0
:04241C00000D0A00A5
:0B15670048021B23232323232323001F
:10193E00E49001DBF0A3F0A3F0A3F075C11712261B
:10194E00DB75C11712272475C1177BFF7A23799C8B
:10195E00122700121EB575C1171225FF7BFF7A23C1
:10196E0079A89001E4740CF0E4FDFF1224857BFF4E
:10197E007A2379B112270075C1179001E274FFF036
:10198E00A37423F0A374C3F0A374FFF0A37423F025
:10199E00A374CCF0A374FFF0A37423F0A374D8F057
:1019AE007BFF7A2379BD12176D75C1177BFF7A23E2
:1019BE0079DD122700121F8D75C1377F641226CB79
:1019CE0075C13775C1377F641226CB7B017A0279D8
:1019DE001B121CD39001DDE06E7003A3E06F60E379
:1019EE009001DDEEF0A3EFF07BFF7A2379FC12106D
:1019FE0019E49001DBF0A3F09001DBE0FEA3E0FF21
:101A0E00C39407EE94005049741B2FF58274023E66
:101A1E00F583E09001DBB42314A3E0FE75F008A477
:101A2E00FFEE2430FB9001E9740CF0800FA3E075FB
:101A3E00F008A4FF9001E9740CF07B207D04121BCA
:101A4E00D39001DCE004F070AF9001DBE004F08095
:101A5E00A775C1379001E27401F0A37402F0A3746C
:101A6E001BF07BFF7A2479081210197BFF7A2479F8
:101A7E001D1210197B017A02791B121DC675C13712
:081A8E007F641226CB0219D17E
:1026B5007FE81226CB7FE81226CB7FE81226CB7F58
:0626C500E81226CB7FE8BD
:0F26CB007D527C03ED1D70011C144C70F7DFF184
:0126DA0022DD
:0B2888001226B51226B57FE80226CB11
:10205A00753420696E697420656E640D0A004154F6
:10206A002B43574A41503D2200222C2200220D0ABE
:10207A0000726163653A0D0A0041542B43574D4F74
:10208A0044453D310D0A0041542B4349504D5558A2
:10209A003D300D0A0041542B434950535441525488
:1020AA003D22544350222C2200222C000D0A007398
:1020BA00656E643A0D0A41542B43495053544152B8
:1020CA00543D22544350222C220065737020696EBD
:1020DA00697420656E64200D0A0041542B434950EF
:1020EA0053454E443D3139310D0A0041542B434981
:1020FA005053454E443D34380D0A002B2B2B0041DA
:0E210A00542B43495053454E443D320D0A00BC
:10157200606400F5000000000000000000000000B0
:101582000000000000000000000000000000000059
:101592000000000000000000000000000000000049
:1015A2000000000000000000000000000000000039
:1015B2000000000000000000000000000000000029
:1015C2000000000000000000000000000000000019
:1015D20000000000000000004200EF000060BF00B9
:1015E2000010BC0100044D51545404C2012C00549B
:1015F20061363278706469506D57642E35315365A7
:10160200636F6E64546573747C7365637572656D24
:101612006F64653D322C7369676E6D6574686F64C3
:101622003D686D61637368613235362C74696D652E
:101632007374616D703D313637343630383430353D
:101642003032377C001835315365636F6E645465F0
:1016520073742661363278706469506D5764004045
:1016620061376432356130613163366630653339F2
:101672006139353266353664323534386163363134
:10168200393166623962383036343530393735644B
:10169200376331353137333836633564366439363A
:1016A200603000BF302E00252F61363278706469B9
:1016B200506D57642F35315365636F6E6454657393
:1016C200742F757365722F7570646174652323239B
:0E16D200232323234200F1C0004200F3E00076
:1027A40043BA0475845075D3E875D2FF43D12043EE
:0827B400D18075AF10D2AF22F5
:030093000224E55F
:1024E500C0E0C083C082C0D075D000C006E584308E
:1024F500E0375384FE9000EFE0FEA3E024F5F5827B
:1025050074003EF583E585F09000F0E004F0700678
:102515009000EFE004F0C39000F0E094649000EFC9
:10252500E094004004E4F0A3F0E58430E105538431
:0E253500FDC209D006D0D0D082D083D0E032D3
:052826003CF583E0FF1A
:0B282B005384F7D2098F852009FD229D
:08258D00E0FBA3E0FAA3E0F972
:102595009001EBEBF0A3EAF0A3E9F09001EBE0FB8F
:1025A500A3E0FAA3E0F9121A9660179001EBA3E4F1
:1025B50075F001121B77A9F0FA121A96FF12282B53
:0325C50080D92298
:10176D009001DFEBF0A3EAF0A3E9F01227A47BFFD1
:10177D007A20795A1227007BFF7A207968122595F5
:10178D009001DF12258D7BFF7A20797312259590BC
:10179D0001E212258D7BFF7A2079771225957BFF4B
:1017AD007A2079681227009001DFE0FBA3E0FAA30D
:1017BD00E0F91227007BFF7A207973122700900140
:1017CD00E2E0FBA3E0FAA3E0F91227007BFF7A2009
:1017DD0079771227001228887BFF7A20797B1227D0
:1017ED00009000EFE0FEA3E024F5F58274003EF5D5
:1017FD0083E4F07B017A0079F51227007FE8122649
:10180D00CB75C117E49000EFF0A3F07BFF7A207940
:10181D00831225957BFF7A20798312270012288861
:10182D007BFF7A20797B1227009000EFE0FEA3E08A
:10183D0024F5F58274003EF583E4F07B017A00799E
:10184D00F51227007FD01226CB75C117E49000EF5B
:10185D00F0A3F07BFF7A2079911225957BFF7A20FA
:10186D0079911227001228887BFF7A20797B122725
:10187D00009000EFE0FEA3E024F5F58274003EF544
:10188D0083E4F07B017A0079F51227007FD01226D0
:10189D00CB75C117E49000EFF0A3F07BFF7A2079B0
:1018AD009F1225959001E512258D7BFF7A2079B346
:1018BD001225959001E812258D7BFF7A2079B612BD
:1018CD0025957BFF7A2079B91227009001E5E0FB81
:1018DD00A3E0FAA3E0F91227007BFF7A2079B31277
:1018ED0027009001E8E0FBA3E0FAA3E0F91227003E
:1018FD007BFF7A2079B61227001228887BFF7A2089
:10190D00797B1227009000EFE0FEA3E024F5F5822D
:10191D0074003EF583E4F07B017A0079F51227001F
:10192D0075C1177FD01226CB7BFF7A2079D4022781
:01193D0000A9
:101F8D00E49001DFF0A3F09000EFF0A3F07F641276
:101F9D0026CB7BFF7A2079E41225959000EFE0FEA9
:101FAD00A3E0FF24FEEE34FFC3940040EE74F32F44
:101FBD00F58274003EF583E0B43EE07FE81226CB57
:101FCD00E49000EFF0A3F07F1012282B9001DFF0CA
:101FDD00A304F09001DFE0FEA3E0FFC394BFEE94F5
:101FED0000501B74002FF58274003E1228279001BB
:101FFD00E0E004F070DD9001DFE004F080D57FE8D3
:10200D001226CB75C1379000EFA3E02430FF1227C5
:10201D00E27B017A0079F59000EFE0FCA3E0FD1280
:10202D0000037FC81226CB75C1377FC81226CB752A
:10203D00C1377FC81226CB75C1377FC81226CB7525
:0C204D00C1377FC81226CB75C1377F0158
:012059002264
:101DC600E4FDFC9000EFF0A3F0121A969000E8F004
:101DD600900001121AAF9000E9F0900002121AAFBB
:101DE6009000EAF0900003121AAF9000EBF090001A
:101DF60004121AAF9000ECF0900005121AAF900092
:101E0600EDF0900006121AAF9000EEF07BFF7A20FC
:101E160079F51225959000EFE0FEA3E0FF24FEEE93
:101E260034FFC39400400F74F32FF58274003EF51F
:101E360083E0643E603D9000EFE0FEA3E0FF24FFF8
:101E4600EE34FFC39400400F74F42FF58274003E05
:101E5600F583E0643E601C9000EFE0FEA3E0FFC364
:101E6600EE940040B074F52FF58274003EF583E0E1
:101E7600B43EA27F641226CB75C137E4FCFD74BF65
:101E86002DF58274001228260DBD00010CED64307C
:101E96004C70EB7F641226CB75C1377BFF7A2179B4
:0E1EA6000512259575C1377FC81226CB7F0126
:011EB400220B
:10002600E4FDFC9000EFF0A3F07BFF7A2179091242
:1000360025959000EFE0FEA3E0FF24FEEE34FFC31B
:10004600940040EE74F32FF58274003EF583E0B41D
:100056003EE07FE81226CBE4FCFD74F12DF58274B8
:10006600001228260DBD00010CED64024C70EB7FDA
:10007600E81226CB7BFF7A2179051225957FD012CF
:0400860026CB7F0105
:01008A002253
:10242000E4FDFC9000EFF0A3F07BFF7A2179091224
:1024300025959000EFE0FEA3E0FF24FEEE34FFC3FD
:10244000940040EE74F32FF58274003EF583E0B4FF
:102450003EE07FE81226CBE4FCFD74F32DF5827498
:10246000001228260DBD00010CED64024C70EB7FBC
:10247000E81226CB7BFF7A2179051225957FD012B1
:0424800026CB7F01E7
:012484002235
:10131300EFD3940740037F0122121A96FED394035E
:1013230040037F0222EF7041EE700B900001121A0E
:10133300AFF452935294121A96B4010B9000011217
:101343001AAF4293F45294121A96FEB4020A900012
:1013530001121AAF42934294EEB4030D90000112AE
:101363001AAFFEF45293EE4294EF64017043121AE3
:1013730096FE700B900001121AAFF452915292EE46
:10138300B4010B900001121AAF4291F45292121A57
:1013930096B4020A900001121AAF42914292121AB5
:1013A30096B4030D900001121AAFFEF45291EE426F
:1013B30092EF64027043121A96FE700B90000112B2
:1013C3001AAFF452955296EEB4010B900001121A23
:1013D300AF4295F45296121A96B4020A9000011283
:1013E3001AAF42954296121A96B4030D9000011259
:1013F3001AAFFEF45295EE4296EF64037043121A4D
:1014030096FE700B900001121AAFF452B152B2EE75
:10141300B4010B900001121AAF42B1F452B2121A86
:1014230096B4020A900001121AAF42B142B2121AE4
:1014330096B4030D900001121AAFFEF452B1EE42BE
:10144300B2EF64047043121A96FE700B90000112FF
:101453001AAFF452B352B4EEB4010B900001121A56
:10146300AF42B3F452B4121A96B4020A90000112B6
:101473001AAF42B342B4121A96B4030D900001128C
:101483001AAFFEF452B3EE42B4EF64057043121A7E
:1014930096FE700B900001121AAFF452C952CAEEB5
:1014A300B4010B900001121AAF42C9F452CA121AC6
:1014B30096B4020A900001121AAF42C942CA121A24
:1014C30096B4030D900001121AAFFEF452C9EE4216
:1014D300CAEF64067043121A96FE700B9000011255
:1014E3001AAFF452CB52CCEEB4010B900001121A96
:1014F300AF42CBF452CC121A96B4020A90000112F6
:101503001AAF42CB42CC121A96B4030D90000112CB
:101513001AAFFEF452CBEE42CCEF64077043121ABB
:1015230096FF700B900001121AAFF452E152E2EFF2
:10153300B4010B900001121AAF42E1F452E2121A05
:1015430096B4020A900001121AAF42E142E2121A63
:1015530096B4030D900001121AAFFFF452E1EF426B
:04156300E27F002201
:1026DB00E49001DFF0A3747CF07B017A0179DF7F5A
:1026EB00031213139001E07403F07B017A0179DF7D
:0526FB007F050213132E
:101CD300E4FFFE7423121ADC900001121AEE900046
:101CE300027423121AEE9000037423121AEE90006A
:101CF300047423121AEE9000057423121AEE900056
:101D0300067423121AEE30B20C7430121ADCEF246C
:101D130001FFEE33FE30B3169000017431121AEE58
:101D2300EF2401FFE43EFEEF25E0FFEE33FE30B487
:101D33001A9000027432121AEEEF2401FFE43EFE01
:101D4300EF7802C333CE33CED8F9FF30C81A9000F0
:101D5300037433121AEEEF2401FFE43EFEEF78031F
:101D6300C333CE33CED8F9FF30C91D900004743489
:101D7300121AEEEF2401FFE43EFEEFC4F8540FC83D
:101D830068FFEEC454F048FE30B51A900005743570
:101D9300121AEEEF2401FFE43EFEEF7805C333CEC3
:101DA30033CED8F9FF30B61A9000067436121AEE05
:101DB300EF2401FFE43EFEEF7806C333CE33CED8E3
:021DC300F9FF26
:011DC50022FB
:100096000000000000000000002F00000000070024
:1000A600070000147F147F1400242A7F2A1200629E
:1000B600640813230036495522500000050300004A
:1000C60000001C224100000041221C000014083ED2
:1000D60008140008083E0808000000A06000000898
:1000E60008080808000060600000002010080402EC
:1000F600003E5149453E0000427F400000426151AA
:100106004946002141454B31001814127F10002743
:1001160045454539003C4A49493000017109050306
:1001260000364949493600064949291E0000363637
:10013600000000005636000000081422410000149A
:100146001414141400004122140800020151090677
:1001560000324959513E007C1211127C007F4949F8
:100166004936003E41414122007F4141221C007F29
:1001760049494941007F09090901003E4149497A37
:10018600007F0808087F0000417F410000204041B1
:100196003F01007F08142241007F40404040007F1D
:1001A600020C027F007F0408107F003E4141413E61
:1001B600007F09090906003E4151215E007F0919A9
:1001C60029460046494949310001017F0101003FA6
:1001D6004040403F001F2040201F003F4038403F26
:1001E600006314081463000708700807006151498A
:1001F600454300007F41410000552A552A5500001D
:1002060041417F000004020102040040404040409A
:10021600000001020400002054545478007F484432
:10022600443800384444442000384444487F003869
:100236005454541800087E0901020018A4A4A47C92
:10024600007F080404780000447D4000004080845C
:100256007D00007F102844000000417F4000007CA4
:1002660004180478007C08040478003844444438B0
:1002760000FC242424180018242418FC007C0804FC
:10028600040800485454542000043F444020003CD5
:100296004040207C001C2040201C003C4030403C5C
:1002A600004428102844001CA0A0A07C00446454EC
:1002B6004C44141414141414000000000000000030
:1002C6000000000000000000000000F80000000030
:1002D600000000333000000000100C06100C060071
:1002E600000000000000000040C07840C0784000D8
:1002F600043F04043F040400007088FC083000003A
:10030600001820FF211E0000F008F000E018000091
:1003160000211C031E211E0000F00888700000004A
:100326001E2123241927211010160E00000000009C
:100336000000000000000000000000E018040200B9
:10034600000000071820400000020418E00000002A
:100356000040201807000000404080F08040400028
:100366000202010F01020200000000F0000000007E
:100376000101011F01010100000000000000000052
:1003860080B07000000000000000000000000000C7
:100396000001010101010101000000000000000050
:1003A60000303000000000000000000080601804EB
:1003B600006018060100000000E010080810E000C8
:1003C600000F102020100F00001010F80000000091
:1003D6000020203F202000000070080808887000D8
:1003E6000030282422213000003008888848300058
:1003F6000018202020110E000000C02010F8000078
:1004060000070424243F240000F808888808080010
:100416000019212020110E0000E010888818000025
:10042600000F112020110E0000380808C8380800F7
:100436000000003F00000000007088080888700077
:10044600001C222121221C0000E010080810E000F8
:100456000000312222110F00000000C0C000000081
:1004660000000030300000000000008000000000A6
:10047600000080600000000000008040201008009E
:100486000001020408102000404040404040400067
:100496000404040404040400000810204080000042
:1004A6000020100804020100007048080808F00047
:1004B6000000003036010000C030C828E810E00017
:1004C6000718272423140B000000C038E0000000A2
:1004D600203C23020227382008F88888887000000C
:1004E600203F202020110E00C030080808083800E0
:1004F600071820202010080008F808080810E00057
:10050600203F202020100F0008F88888E8081000F7
:10051600203F20202320180008F88888E8081000CB
:10052600203F200003000000C03008080838000003
:1005360007182020221E020008F808000008F80804
:10054600203F210101213F20000808F8080800008B
:100556000020203F2020000000000808F8080800BE
:10056600C08080807F00000008F888C02818080036
:10057600203F20012638200008F80800000000006F
:10058600203F20202020300008F8F800F8F8080066
:10059600203F003F003F200008F830C00008F80860
:1005A600203F200007183F00E01008080810E00070
:1005B6000F10202020100F0008F808080808F00087
:1005C600203F210101010000E01008080810E000AA
:1005D6000F18242438504F0008F88888888870003F
:1005E600203F2000030C30200070880808083800DF
:1005F6000038202121221C00180808F808081800D5
:100606000000203F2000000008F808000008F80855
:10061600001F202020201F000878880000C8380806
:10062600000007380E010000F80800F80008F8007E
:10063600033C0700073C0300081868808068180818
:1006460020302C03032C30200838C800C838080096
:100656000000203F2000000010080808C8380800E5
:100666002038262120201800000000FE0202020089
:100676000000007F40404000000C30C00000000039
:10068600000000010638C00000020202FE00000061
:10069600004040407F000000000004020202040007
:1006A6000000000000000000000000000000000044
:1006B600808080808080808000020204000000002C
:1006C6000000000000000000000080808080000024
:1006D6000019242222223F2008F800808000000012
:1006E600003F112020110E000000008080800000D5
:1006F600000E112020201100000000808088F800E4
:10070600000E112020103F20000080808080000015
:10071600001F222222221300008080F08888881879
:100726000020203F20200000000080808080800084
:10073600006B94949493600008F800808080000019
:10074600203F210000203F200080989800000000F4
:100756000020203F20200000000000809898000024
:1007660000C08080807F000008F800008080800044
:10077600203F24022D302000000808F80000000069
:100786000020203F20200000808080808080800024
:10079600203F20003F20003F8080008080800000B6
:1007A600203F210000203F20000080808080000044
:1007B600001F202020201F00808000808000000075
:1007C60080FFA12020110E000000008080808000A4
:1007D600000E112020A0FF80808080008080800095
:1007E60020203F21200001000000808080808000C2
:1007F6000033242424241900008080E08080000037
:100806000000001F20200000808000000080800083
:10081600001F202020103F208080800000808080E4
:1008260000010E3008060100808000800080808074
:100836000F300C030C300F00008080008080800099
:100846000020312E0E3120008080800000808080C4
:1008560080818E7018060100008080808080800074
:100866000021302C2221300000000000807C020292
:1008760000000000003F404000000000FF000000B4
:1008860000000000FF0000000002027C8000000063
:100896000040403F0000000000060101020204047F
:1008A6000000000000000000201008FC03202010BB
:1008B6007F88888482E000000000000000000000BD
:1008C600000000000000000004040405040404FF06
:1008D60004040404040404000000000000000000F6
:1008E60000000000000000000020202020FF000083
:1008F60000FF40201008000000000000000000007B
:1009060000000000000000002060201010FF000022
:10091600003F40404040780000000000000000001A
:1009260000000000000000000000F888888888FFAA
:1009360088888888F8000000000000000000000099
:10094600000000000000000000001F080808087FE3
:10095600888888889F80F000000000000000000062
:100966000000000000000000001010101010FF1022
:1009760010101010F0000000000000000000000041
:100986000000000000000000008040201806010062
:10099600204080403F0000000000000000000000F2
:1009A600000000000000000020202020202020FF62
:1009B6002020202020202000000000000000000051
:1009C600000000000000000080804020100C0300A2
:1009D600030C102040808000000000000000000092
:1009E60000000000000000004030119690909196A3
:1009F6009090981413503000000000000000000092
:100A06000000000000000000040404040444847E86
:100A160006050404040404000000000000000000B1
:100A260000000000000000000000F8494A4C48F8A9
:100A3600484C4A49F8000000000000000000000091
:100A4600000000000000000010101312121212FF26
:100A56001212121213101000000000000000000015
:100A66000000000000000000000000FE2020202002
:100A7600203F202020200000000000000000000091
:100A860000000000000000000080601F0202020259
:100A96000202FE000000000000000000000000004E
:100AA60000000000000000001010D0FF901000FEB3
:100AB600020202FE0000000000000000000000002C
:100AC6000000000000000000040300FF0083601F18
:100AD6000000003F404078000000000000000000D9
:100AE6000000000000000000100C048414640506D9
:100AF600F404040404140C000000000000000000CC
:100B06000000000000000000048484444724140C04
:100B1600070C1424448404000000000000000000B8
:100B2600000000000000000002FA8282FE804020E1
:100B3600504C434C502040000000000000000000D4
:100B4600000000000000000008184884443F4044AC
:100B560058414E6058474000000000000000000069
:100B6600000000000000000000020212620202FE05
:100B760002024232020200000000000000000000F3
:100B8600000000000000000001010101010101FF59
:100B96000101010101010100000000000000000048
:100BA60000000000000000000040E05048444340C0
:100BB6004040485060C000000000000000000000F7
:100BC6000000000000000000000000FE4242424219
:100BD600424242FE0000000000000000000000004B
:100BE6000000000000000000000202C2020202FE35
:100BF6008282828282020000000000000000000063
:100C060000000000000000004040407F4040407F60
:100C1600404040404040400000000000000000000E
:100C26000000000000000000080888C8380C0B0807
:100C360008E8080808080800000000000000000096
:100C46000000000000000000020100FF4041414199
:100C5600417F41414141400000000000000000008A
:100C6600000000000000000080828282FE828282F4
:100C76008282FE8282828000000000000000000066
:100C86000000000000000000008040300F0000005F
:100C96000000FF000000000000000000000000004F
:100CA60000000000000000001010D0FF901000FEB1
:100CB600020202FE0000000000000000000000002A
:100CC6000000000000000000040300FF0083601F16
:100CD6000000003F404078000000000000000000D7
:100CE60000000000000000002010E824272424E46F
:100CF60024342C20E000000000000000000000006A
:100D0600000000000000000080601F090909097F3B
:100D1600090949897F00000000000000000000006A
:100D260000000000000000000000FC242424FC2534
:100D36002624FC24242404000000000000000000F7
:100D4600000000000000000040308F80844C5525D4
:100D56002525554C80808000000000000000000022
:100D66000000000000000000101010FF1010F0003E
:100D760000F8080808F80000000000000000000065
:100D860000000000000000008040300F40807F001F
:100D9600007F2020207F00000000000000000000EF
:100DA6000000000000000000404042CC0004F49423
:100DB60094FF9494F404000000000000000000007A
:100DC60000000000000000000040201F20484442B0
:100DD600415F41424448400000000000000000001E
:100DE60000000000000000000000FC242424FC2574
:100DF6002624FC2424240400000000000000000037
:100E0600000000000000000040308F80844C552513
:100E16002525554C80808000000000000000000061
:100E26000000000000000000002018C744444444AD
:100E3600FC4444444404000000000000000000009C
:100E46000000000000000000040404070404040479
:100E5600FF04040404040400000000000000000075
:100E66000000000000000000000000FE22222222F6
:100E760022222222FE0000000000000000000000E6
:100E860000000000000000008040300F0202020255
:100E9600020242827F000000000000000000000005
:100EA6000000000000000000000000FE8282828236
:100EB600828282FE000000000000000000000000A8
:100EC6000000000000000000000000FF404040401D
:100ED600404040FF0000000000000000000000004D
:100EE600000000000000000000FC848484FC001068
:100EF60010101010FF10100000000000000000008D
:100F06000000000000000000003F1010103F00002D
:100F1600010640807F000000000000000000000085
:100F2600000000000000000080402090888680803D
:100F360080838C102040800000000000000000002C
:100F4600000000000000000000804020180700405C
:100F560080403F000000000000000000000000008C
:100F660000000000000000002424A4FE232200C08C
:100F76003800FF00081060000000000000000000BC
:100F86000000000000000000080601FF0106818045
:100F9600404027100C030000000000000000000085
:080FA600000000000000000043
:06281500D2C57F017E0028
:0B281B00EF1FAC0670011E4C70F6228F
:0F283600D2C5D2C6122817C2C6122817C2C52291
:0D286F00C2C5C2C6122817122815D2C622F3
:0B27BC001226951227C7AF02122695C7
:0C27C700122815C2C57F017E0002281BED
:07268E00AA071228367F782D
:10269500AD07E4FBED30E704D2C68002C2C61228BE
:0F26A50015C2C5122817ED25E0FD0BEBB408E5B3
:0126B4002203
:0E28450012268E1227C7E4FF1227BC02286F4E
:0E28530012268E1227C77F401227BC02286F64
:10274700EF24B0FFE4FD12275AE4FDFF12275AE4F5
:03275700FD7F10F3
:0E275A00A907ED6003022853AF0112284522A3
:0525C800900228EFF075
:1025CD00E4A3F0900229E0FFC3940850241227479A
:1025DD00E4A3F0900228E0FF7D0112275A90022A11
:1025ED00E004F0E0C3948040EA900229E004F0801A
:0125FD00D20B
:0125FE0022BA
:10276800D3EF9400EE940040147D657C18ED1D7045
:0D277800011CED4C70F7EF1F70E61E80E3B2
:012785002231
:1027EA00EF1FAA0670011E4A600BE4FDEDC3947B3D
:0527FA0050EE0D80F718
:0127FF0022B7
:082661009001E6E0FFA3E0FD9B
:102669009001ECEFF0ED24B0FFE4FD12275AE0549D
:10267900F0C4540F4410FFE4FD12275AE0540FFF31
:05268900E4FD02275AE8
:10280000E4FD7F8D12275AE4FD7F1412275AE4FD60
:052810007FAF02275A12
:0E286100E4FD7F8D122753E4FD7FAE02275A5F
:1025FF00E49001DFF09001DFE0FFC3940850211257
:10260F002747E4A3F07D01E4FF12275A9001E0E091
:10261F0004F0E0C3948040ED9001DFE004F080D53A
:01262F002288
:10263000E490022BF090022BE0FFC394085021128B
:102640002747E4A3F07D017F0112275A90022CE076
:1026500004F0E0C3948040ED90022BE004F080D5BC
:012660002257
:0B1BD3009001E7EDF09001E6EFF0FD5F
:101BDE00E49001EAF0A3F0EB24E09001EAF0EDD3FB
:101BEE00947F400AE49001E6F0A3E02402F0900115
:101BFE00E9E064106003021C8C122661E49001EB94
:101C0E00F09001EBE0FFC39408502C9001EAE075D0
:101C1E00F010A42FF582E435F0F583E58224BEF5AD
:101C2E0082E5833402F583E493FF7D0112275A90F7
:101C3E0001EBE004F080CA9001E6E0FFA3E004FDB2
:101C4E00122669E49001EBF09001EBE0FFC39408DB
:101C5E0050729001EAE075F010A42FF582E435F091
:101C6E00F583E58224C6F582E5833402F583E49399
:101C7E00FF7D0112275A9001EBE004F080CA90011B
:101C8E00E9E0640C703E122661E49001EBF09001E5
:101C9E00EBE0FFC39406502C9001EAE075F006A429
:101CAE002496F582E5F03400F583E5822FF582E483
:101CBE003583F583E493FF7D0112275A9001EBE003
:041CCE0004F080CAD4
:011CD20022EF
:0727860090022DEFF0A90500
:10278D007F017E00AD0119ED600C90022DE0FD7C06
:06279D0000121B1080EE8B
:0127A3002213
:0E211800900212EFF0A3EDF0A3EAF0A3EBF0BB
:10212600E490021AF0900218F0900216E0FF900276
:1021360018E0FEC39F40030221D2C3EF9E14FD7F29
:102146000A122786900214E0FCA3E0FDCFCDCFCE85
:10215600CCCE121B227C007D0A121B22900219EDA6
:10216600F0A3E07036900216E014FF900218E0FE2D
:10217600C39F5027A3E0701D900217E0FCC3138E87
:10218600F0A4FF900212E02FFFA3E0FD9001E9EC1E
:10219600F07B20802B90021A7401F0900217E0FE6B
:1021A600C313FFA3E0FDEF8DF0A4FF900212E02F12
:1021B600FFA3E0FD900219E02430FB9001E9EEF068
:0C21C600121BD3900218E004F002212F3D
:0121D20022EA
:102485009001DFEFF0A3EDF0A3EBF0A3EAF0A3E9F1
:01249500F056
:10249600E49001E5F09001E1E0FBA3E0FAA3E0F9A6
:1024A6009001E5E0F582758300121AAFFB602F906C
:1024B60001DFE0FFA3E0FD9001E4E09001E9F01206
:1024C6001BD39001DFE02408F0E0D394784007E4C2
:0E24D600F0A3E02402F09001E5E004F080B7EE
:0124E40022D5
:0D21D300900225EBF0900223EFF0A3EDF059
:1021E000E4900227F0122669E4900226F09002267D
:1021F000E0FFC394105032900225E075F040A42413
:10220000AEF582E5F03408F583E5822FF582E435FA
:1022100083F583E493FF7D0112275A900227E0049F
:10222000F0900226E004F080C4900223E0FFA3E0D7
:1022300004FD122669E4900226F0900226E0FFC316
:1022400094105032900225E075F040A424CEF5821F
:10225000E5F03408F583E5822FF582E43583F583D4
:10226000E493FF7D0112275A900227E004F09002C8
:0622700026E004F080C42A
:012276002245
:0A227700900207EFF0900209EBF06F
:10228100E490020EF0A3F0900209E004F0A3E00450
:10229100F0E0FF54077008EF131313541F800A90E6
:1022A100020AE0131313541F04900211F09002115B
:1022B100EDF090020AE0FF900211E0FDC39F504E45
:1022C100900207E0FF122669900207E0900210F0E9
:1022D100900209E0FF900210E0C39F502990020B89
:1022E100E0FBA3E0FAA3E0F9A3E475F001121B7788
:1022F10085F082F583121AAFFF7D0112275A9002F1
:0E23010010E004F080CA900211E004F080A405
:01230F0022AB
:101EB5009001DF7403F0A37420F07B017A0179DFD0
:101EC5007F041213139001DF7402F0A37440F07BBA
:101ED500017A0179DF7F04121313E4FD7FAE122727
:101EE5004DE4FD7F4012275AE4FD7FB012275AE4E6
:101EF500FD7F8112275AE4FD7FFF12275AE4FD7FFB
:101F0500A112275AE4FD7FA612275AE4FD7FA812E5
:101F1500275AE4FD7F3F12275AE4FD7FC812275A4E
:101F2500E4FD7FD312275AE4FDFF12275AE4FD7F13
:101F3500D512275AE4FD7F8012275AE4FD7FD81277
:101F4500275AE4FD7F0512275AE4FD7FD912275A47
:101F5500E4FD7FF112275AE4FD7FDA12275AE4FDEA
:101F65007F1212275AE4FD7FDB12275AE4FD7F30EA
:101F750012275AE4FD7F8D12275AE4FD7F1412279C
:081F85005AE4FD7FAF02275A68
:1016E00060800159000000000000000000000000C0
:1016F00000000000000000000000000000000000EA
:1017000000000000000000000000000000000000D9
:1017100000000000000000000000000000000000C9
:1017200000000000000000000000000000000000B9
:1017300000000000000000000000000000000000A9
:101740000000000000000000000000000000000099
:101750000000000000000000000000000000000089
:0C176000000000004101D9004101DA0046
:10272400E5A2543FF5A2E598543F4440F59875D787
:10273400E875D6FF758E14438E01D2BCD2ACD29C00
:03274400D2AF22EF
:0300230002254370
:0B254300C0E0C083C082C0D075D0088B
:10254E0030982CC298AF999001D9E0C39480501066
:10255E00E0FE04F074592EF582E43401F583EFF0B9
:10256E00EFB40D0B9001DA7401F09001D9E4F03064
:06257E009904C299C20A93
:09258400D0D0D082D083D0E03227
:0F27D300A3E475F001121B77A9F0FA121A96FF12
:0827E200200AFDD20A8F9922A2
:100003009001E1EBF0A3EAF0A3E9F0ED4C600F906F
:0F00130001E1E0FB1227D3ED1D70F01C80ED2200
:0C287C00C2AC8F993099FDC299D2AC22F9
:102700009001EBEBF0A3EAF0A3E9F09001EBE0FB22
:10271000A3E0FAA3E0F9121A9660089001EB1227E1
:04272000D380E82258
:10231C0002193EE493A3F8E493A34003F68001F280
:10232C0008DFF48029E493A3F85407240CC8C333C2
:10233C00C4540F4420C8834004F456800146F6DF91
:10234C00E4800B0102040810204080901567E47EA5
:10235C00019360BCA3FF543F30E509541FFEE49386
:10236C00A360010ECF54C025E060A840B8E493A34D
:10237C00FAE493A3F8E493A3C8C582C8CAC583CA78
:10238C00F0A3C8C582C8CAC583CADFE9DEE780BE30
:01176C00007C
:101A9600BB010689828A83E0225002E722BBFE024E
:091AA600E32289828A83E4932281
:101AAF00BB010CE58229F582E5833AF583E02250EC
:101ABF0006E92582F8E622BBFE06E92582F8E22236
:0D1ACF00E58229F582E5833AF583E4932250
:101ADC00BB010689828A83F0225002F722BBFE01E9
:021AEC00F322E3
:101AEE00F8BB010DE58229F582E5833AF583E8F02E
:101AFE00225006E92582C8F622BBFE05E92582C8DA
:021B0E00F222C1
:101B1000EF8DF0A4A8F0CF8CF0A428CE8DF0A42EE9
:021B2000FE22A3
:101B2200BC000BBE0029EF8DF084FFADF022E4CCA7
:101B3200F875F008EF2FFFEE33FEEC33FCEE9DEC70
:101B4200984005FCEE9DFE0FD5F0E9E4CEFD22EDB6
:101B5200F8F5F0EE8420D21CFEADF075F008EF2F00
:101B6200FFED33FD4007985006D5F0F222C398FDF1
:051B72000FD5F0EA228E
:101B7700A3F8E0C5F025F0F0E58215827002158321
:061B8700E0C838F0E8227E
:100FAE00E51024E2F582E43401F583E00510229089
:100FBE0001DF3007039001E2E475F001121B8D0290
:100FCE001A962000E97F2ED2008018EF540F24903D
:100FDE00D43440D4FF30040BEF24BFB41A005003B6
:100FEE002461FFE511600215110514E51470020568
:100FFE001330070E9001DFE475F001121B8DEF0226
:10100E001ADC02287C7403D2078003E4C207F510B1
:10101E009001DF121BA4E4F511F513F514E5116030
:10102E00077F20120FF180F57512FFC201C200C2B8
:10103E0002C203C205C206C208120FBDFF700D30F8
:10104E0007057F00121002AF14AE1322B4255FC243
:10105E00D5C204120FBDFF24D0B40A00501A75F089
:10106E000A781130D50508B6FF0106C6A426F6206B
:10107E00D5047002D20380D924CFB41A00EF5004E5
:10108E00C2E5D204021203D20180C6D20080C0D2C1
:10109E000280BCD2D580BAD20580B47F20120FF167
:1010AE002002077401B5110040F1120FAEFF120FAE
:1010BE00F102102BD208D2068095120FAEFB120F42
:1010CE00AEFA120FAEF94A4B700679D47A127BFF44
:1010DE0020022EE511602A7E008E82758300121A80
:1010EE00AF60060EEE651270F0C2D5EBC0E0EAC03E
:1010FE00E0E9C0E0EE12124AD0E0F9D0E0FAD0E01A
:10110E00FB121A96FF60AAEBC0E0EAC0E0E9C0E06D
:10111E00120FF1D0E02401F9D0E03400FAD0E0FB58
:10112E00E5120460DCD512D980877BFF7A127946EE
:10113E00D202809C791080027908C206C20880080B
:10114E00D2D5790A8004790AC2D5E512047002F567
:10115E0012E4FAFDFEFF120FAEFC7B082001131203
:10116E000FAEFD7B1030000A120FAEFE120FAEFF57
:10117E007B20EC3382D592D55013C3E43000069F0A
:10118E00FFE49EFEE42001039DFDE49CFCE4CBF80D
:10119E00C201EC700CCFCECDCCE824F8F870F38001
:1011AE0017C3EF33FFEE33FEED33FDEC33FCEB33C1
:1011BE00FB994002FB0FD8E9EB300105F8D0E0C4F3
:1011CE0048B201C0E00AEC4D4E4F78207B0070C251
:1011DE00EAB5120040BCC0E012124CD0F0D0E020B4
:1011EE000104C4C0E0C4B201C0F0120FDAD0F0D5D1
:1011FE00F0EB02102B121BAD10C853114258109970
:10120E004C10954211464F114E44114E4910AE43AB
:08121E00115455113846113836
:101226004511384712F450109D2D10A12E10C42BD5
:1012360010A52310C22012DD2A105D48000010BC44
:101246003F3F3F00790AA2D5200314300509B910A3
:10125600020404B9080104A2D520060250010420A4
:1012660002689202B511005034C0E07F20300319A5
:101276007F30A20272067205500F1212A3C202C27A
:1012860006C205C2087F30800F300503E9C0E012B0
:101296000FF1300503D0E0F9D0E0B511CC300517D9
:1012A6007F30B9100C120FF17F583004077F788019
:1012B60003B90803120FF13002057F2D020FF17FEB
:1012C600202008F87F2B2006F322920280CF286E7A
:1012D600756C6C2900D201120FAE3001F8C201788C
:1012E6001130D50108F602105D2D50434958120FF2
:1012F600AE2403B405004001E49012EF93120FE20E
:0D130600743A120FE2D20375110402114275
:101B8D00F8E0FBA3A3E0F925F0F0E58215827002E1
:071B9D001583E0FA38F02285
:091BA400EBF0A3EAF0A3E9F02242
:101BAD00D083D082F8E4937012740193700DA3A3C7
:101BBD0093F8740193F5828883E4737402936860DB
:061BCD00EFA3A3A380DFDB
:00000001FF
