:030000000221FFDB
:0C21FF00787FE4F6D8FD758121022246AD
:10228B00676F20676F20676F200D0A006E6F7720D6
:10229B0070757368006F6C656420656E64200D0A41
:1022AB00004D692031310071717171717171710063
:1022BB0034372E39312E382E313431003138383312
:1022CB00000D0A206E6F77206920616D2064656CAC
:1022DB006179203130207365636F6E64200D0A00C5
:1022EB006E6F772070757368203A20000D0A77693E
:1022FB00666973656E646275666620697320257303
:04230B00000D0A00B7
:0B156700480219232323232323230021
:101A7B00E49001DBF0A3F075C11712264875C1176E
:101A8B0012269175C1177BFF7A22798B12266D1264
:101A9B001DA475C11712256C7BFF7A2279979001D3
:101AAB00E2740CF0E4FDFF1223F27BFF7A2279A0A3
:101ABB0012266D75C1179001E074FFF0A37422F02C
:101ACB00A374B2F0A374FFF0A37422F0A374BBF061
:101ADB00A374FFF0A37422F0A374C7F07BFF7A22E8
:101AEB0079AC12176D75C1177BFF7A2279CC122650
:101AFB006D121E7C7FE812263875C1377FE81226DF
:101B0B00387B017A02791912230F7BFF7A2279EB4A
:101B1B00121019E49001DBF0A3F09001DBE0FEA3BF
:101B2B00E0FFC39407EE9400504974192FF58274AB
:101B3B00023EF583E09001DBB42314A3E0FE75F0C5
:101B4B0008A4FFEE2430FB9001E7740CF0800FA388
:101B5B00E075F008A4FF9001E7740CF07B207D0486
:101B6B00121BB59001DCE004F070AF9001DBE004D8
:101B7B00F080A775C1379001E07401F0A37402F0F7
:101B8B00A37419F07BFF7A2279F71210197BFF7A75
:101B9B0023790C1210197B017A027919121CB57575
:0A1BAB00C1377FE8122638021B073D
:102622007FE81226387FE81226387FE81226387FA4
:06263200E81226387FE8E3
:0F2638007D527C03ED1D70011C144C70F7DFF117
:012647002270
:0B27F5001226221226227FE80226385E
:101F4900753420696E697420656E640D0A00415408
:101F59002B43574A41503D2200222C2200220D0AD0
:101F690000726163653A0D0A0041542B43574D4F86
:101F790044453D310D0A0041542B4349504D5558B4
:101F89003D300D0A0041542B43495053544152549A
:101F99003D22544350222C2200222C000D0A0073AA
:101FA900656E643A0D0A41542B43495053544152CA
:101FB900543D22544350222C220065737020696ECF
:101FC900697420656E64200D0A0041542B43495001
:101FD90053454E443D3139310D0A0041542B434993
:101FE9005053454E443D34380D0A002B2B2B0041EC
:0E1FF900542B43495053454E443D320D0A00CF
:10157200606400F5000000000000000000000000B0
:101582000000000000000000000000000000000059
:101592000000000000000000000000000000000049
:1015A2000000000000000000000000000000000039
:1015B2000000000000000000000000000000000029
:1015C2000000000000000000000000000000000019
:1015D20000000000000000004200EF000060BF00B9
:1015E2000010BC0100044D51545404C2012C00549B
:1015F20061363278706469506D57642E35315365A7
:10160200636F6E64546573747C7365637572656D24
:101612006F64653D322C7369676E6D6574686F64C3
:101622003D686D61637368613235362C74696D652E
:101632007374616D703D313637343630383430353D
:101642003032377C001835315365636F6E645465F0
:1016520073742661363278706469506D5764004045
:1016620061376432356130613163366630653339F2
:101672006139353266353664323534386163363134
:10168200393166623962383036343530393735644B
:10169200376331353137333836633564366439363A
:1016A200603000BF302E00252F61363278706469B9
:1016B200506D57642F35315365636F6E6454657393
:1016C200742F757365722F7570646174652323239B
:0E16D200232323234200F1C0004200F3E00076
:1027110043BA0475845075D3E875D2FF43D1204381
:08272100D18075AF10D2AF2288
:03009300022452F2
:10245200C0E0C083C082C0D075D000C006E5843021
:10246200E0375384FE9000EFE0FEA3E024F5F5820E
:1024720074003EF583E585F09000F0E004F070060C
:102482009000EFE004F0C39000F0E094649000EF5D
:10249200E094004004E4F0A3F0E58430E1055384C5
:0E24A200FDC209D006D0D0D082D083D0E03267
:052793003CF583E0FFAE
:0B2798005384F7D2098F852009FD2231
:0824FA00E0FBA3E0FAA3E0F906
:102502009001E9EBF0A3EAF0A3E9F09001E9E0FB26
:10251200A3E0FAA3E0F912193E60179001E9A3E4DF
:1025220075F001121A1FA9F0FA12193EFF1227982C
:0325320080D9222B
:10176D009001DDEBF0A3EAF0A3E9F01227117BFF66
:10177D007A1F794912266D7BFF7A1F795712250240
:10178D009001DD1224FA7BFF7A1F796212250290F7
:10179D0001E01224FA7BFF7A1F79661225027BFF86
:1017AD007A1F795712266D9001DDE0FBA3E0FAA3B5
:1017BD00E0F912266D7BFF7A1F796212266D90017A
:1017CD00E0E0FBA3E0FAA3E0F912266D7BFF7A1FA0
:1017DD00796612266D1227F57BFF7A1F796A12261C
:1017ED006D9000EFE0FEA3E024F5F58274003EF568
:1017FD0083E4F07B017A0079F512266D7FE81226DD
:10180D003875C117E49000EFF0A3F07BFF7A1F79D4
:10181D00721225027BFF7A1F797212266D1227F53F
:10182D007BFF7A1F796A12266D9000EFE0FEA3E030
:10183D0024F5F58274003EF583E4F07B017A00799E
:10184D00F512266D7FD012263875C117E49000EF82
:10185D00F0A3F07BFF7A1F79801225027BFF7A1FA0
:10186D00798012266D1227F57BFF7A1F796A122671
:10187D006D9000EFE0FEA3E024F5F58274003EF5D7
:10188D0083E4F07B017A0079F512266D7FD0122664
:10189D003875C117E49000EFF0A3F07BFF7A1F7944
:1018AD008E1225029001E31224FA7BFF7A1F79A292
:1018BD001225029001E61224FA7BFF7A1F79A512F8
:1018CD0025027BFF7A1F79A812266D9001E3E0FBBC
:1018DD00A3E0FAA3E0F912266D7BFF7A1F79A2121D
:1018ED00266D9001E6E0FBA3E0FAA3E0F912266D68
:1018FD007BFF7A1F79A512266D1227F57BFF7A1FC4
:10190D00796A12266D9000EFE0FEA3E024F5F582D2
:10191D0074003EF583E4F07B017A0079F512266DB3
:10192D0075C1177FD01226387BFF7A1F79C3022627
:01193D006D3C
:101E7C00E49001DDF0A3F09000EFF0A3F07F64128A
:101E8C0026387BFF7A1F79D31225029000EFE0FEF3
:101E9C00A3E0FF24FEEE34FFC3940040EE74F32F56
:101EAC00F58274003EF583E0B43EE07FE8122638FC
:101EBC00E49000EFF0A3F07F101227989001DDF072
:101ECC00A304F09001DDE0FEA3E0FFC394BFEE9409
:101EDC0000501B74002FF58274003E122794900161
:101EEC00DEE004F070DD9001DDE004F080D57FE8E9
:101EFC0012263875C1379000EFA3E02430FF12276B
:101F0C004F7B017A0079F59000EFE0FCA3E0FD1225
:101F1C0000037FD012263875C1377FD01226387552
:101F2C00C1377FD012263875C1377FD0122638754D
:0C1F3C00C1377FD012263875C1377F01F5
:011F48002276
:101CB500E4FDFC9000EFF0A3F012193E9000E8F06F
:101CC5009000011219579000E9F09000021219577F
:101CD5009000EAF09000031219579000EBF0900085
:101CE500041219579000ECF0900005121957900056
:101CF500EDF09000061219579000EEF07BFF7A1F69
:101D050079E41225029000EFE0FEA3E0FF24FEEE49
:101D150034FFC39400400F74F32FF58274003EF531
:101D250083E0643E603D9000EFE0FEA3E0FF24FF0A
:101D3500EE34FFC39400400F74F42FF58274003E17
:101D4500F583E0643E601C9000EFE0FEA3E0FFC376
:101D5500EE940040B074F52FF58274003EF583E0F3
:101D6500B43EA27FE812263875C137E4FCFD74BF86
:101D75002DF58274001227930DBD00010CED643022
:101D85004C70EB7FE812263875C1377BFF7A1F79D7
:0E1D9500F412250275C1377FD01226387F0167
:011DA300221D
:10002600E4FDFC9000EFF0A3F07BFF7A1F79F81255
:1000360025029000EFE0FEA3E0FF24FEEE34FFC3AE
:10004600940040EE74F32FF58274003EF583E0B41D
:100056003EE07FE8122638E4FCFD74F12DF582744B
:10006600001227930DBD00010CED64024C70EB7F6E
:10007600E81226387BFF7A1F79F41225027FD01208
:0400860026387F0198
:01008A002253
:10238D00E4FDFC9000EFF0A3F07BFF7A1F79F812CB
:10239D0025029000EFE0FEA3E0FF24FEEE34FFC324
:1023AD00940040EE74F32FF58274003EF583E0B493
:1023BD003EE07FE8122638E4FCFD74F32DF58274BF
:1023CD00001227930DBD00010CED64024C70EB7FE4
:1023DD00E81226387BFF7A1F79F41225027FD0127E
:0423ED0026387F010E
:0123F10022C9
:10131300EFD3940740037F012212193EFED39403B7
:1013230040037F0222EF7041EE700B90000112190F
:1013330057F45293529412193EB4010B90000112C8
:1013430019574293F4529412193EFEB4020A9000C4
:101353000112195742934294EEB4030D9000011207
:101363001957FEF45293EE4294EF6401704312193D
:101373003EFE700B900001121957F452915292EEF7
:10138300B4010B9000011219574291F452921219B1
:101393003EB4020A90000112195742914292121967
:1013A3003EB4030D900001121957FEF45291EE4220
:1013B30092EF6402704312193EFE700B900001120B
:1013C3001957F452955296EEB4010B90000112197D
:1013D300574295F4529612193EB4020A9000011234
:1013E30019574295429612193EB4030D900001120B
:1013F3001957FEF45295EE4296EF640370431219A7
:101403003EFE700B900001121957F452B152B2EE26
:10141300B4010B90000112195742B1F452B21219E0
:101423003EB4020A90000112195742B142B2121996
:101433003EB4030D900001121957FEF452B1EE426F
:10144300B2EF6404704312193EFE700B9000011258
:101453001957F452B352B4EEB4010B9000011219B0
:101463005742B3F452B412193EB4020A9000011267
:10147300195742B342B412193EB4030D900001123E
:101483001957FEF452B3EE42B4EF640570431219D8
:101493003EFE700B900001121957F452C952CAEE66
:1014A300B4010B90000112195742C9F452CA121920
:1014B3003EB4020A90000112195742C942CA1219D6
:1014C3003EB4030D900001121957FEF452C9EE42C7
:1014D300CAEF6406704312193EFE700B90000112AE
:1014E3001957F452CB52CCEEB4010B9000011219F0
:1014F3005742CBF452CC12193EB4020A90000112A7
:10150300195742CB42CC12193EB4030D900001127D
:101513001957FEF452CBEE42CCEF64077043121915
:101523003EFF700B900001121957F452E152E2EFA3
:10153300B4010B90000112195742E1F452E212195F
:101543003EB4020A90000112195742E142E2121915
:101553003EB4030D900001121957FFF452E1EF421C
:04156300E27F002201
:10264800E49001DDF0A3747CF07B017A0179DD7FF1
:10265800031213139001DE7403F07B017A0179DD14
:052668007F05021313C1
:10230F0074231219849000011219969000027423FD
:10231F0012199690000374231219969000047423D7
:10232F0012199690000574231219969000067423C3
:10233F0012199630B205743012198430B308900018
:10234F0001743112199630B40890000274321219C8
:10235F009630C808900003743312199630C908904C
:10236F000004743412199630B508900005743512B4
:0E237F00199630B60890000674361219962290
:100096000000000000000000002F00000000070024
:1000A600070000147F147F1400242A7F2A1200629E
:1000B600640813230036495522500000050300004A
:1000C60000001C224100000041221C000014083ED2
:1000D60008140008083E0808000000A06000000898
:1000E60008080808000060600000002010080402EC
:1000F600003E5149453E0000427F400000426151AA
:100106004946002141454B31001814127F10002743
:1001160045454539003C4A49493000017109050306
:1001260000364949493600064949291E0000363637
:10013600000000005636000000081422410000149A
:100146001414141400004122140800020151090677
:1001560000324959513E007C1211127C007F4949F8
:100166004936003E41414122007F4141221C007F29
:1001760049494941007F09090901003E4149497A37
:10018600007F0808087F0000417F410000204041B1
:100196003F01007F08142241007F40404040007F1D
:1001A600020C027F007F0408107F003E4141413E61
:1001B600007F09090906003E4151215E007F0919A9
:1001C60029460046494949310001017F0101003FA6
:1001D6004040403F001F2040201F003F4038403F26
:1001E600006314081463000708700807006151498A
:1001F600454300007F41410000552A552A5500001D
:1002060041417F000004020102040040404040409A
:10021600000001020400002054545478007F484432
:10022600443800384444442000384444487F003869
:100236005454541800087E0901020018A4A4A47C92
:10024600007F080404780000447D4000004080845C
:100256007D00007F102844000000417F4000007CA4
:1002660004180478007C08040478003844444438B0
:1002760000FC242424180018242418FC007C0804FC
:10028600040800485454542000043F444020003CD5
:100296004040207C001C2040201C003C4030403C5C
:1002A600004428102844001CA0A0A07C00446454EC
:1002B6004C44141414141414000000000000000030
:1002C6000000000000000000000000F80000000030
:1002D600000000333000000000100C06100C060071
:1002E600000000000000000040C07840C0784000D8
:1002F600043F04043F040400007088FC083000003A
:10030600001820FF211E0000F008F000E018000091
:1003160000211C031E211E0000F00888700000004A
:100326001E2123241927211010160E00000000009C
:100336000000000000000000000000E018040200B9
:10034600000000071820400000020418E00000002A
:100356000040201807000000404080F08040400028
:100366000202010F01020200000000F0000000007E
:100376000101011F01010100000000000000000052
:1003860080B07000000000000000000000000000C7
:100396000001010101010101000000000000000050
:1003A60000303000000000000000000080601804EB
:1003B600006018060100000000E010080810E000C8
:1003C600000F102020100F00001010F80000000091
:1003D6000020203F202000000070080808887000D8
:1003E6000030282422213000003008888848300058
:1003F6000018202020110E000000C02010F8000078
:1004060000070424243F240000F808888808080010
:100416000019212020110E0000E010888818000025
:10042600000F112020110E0000380808C8380800F7
:100436000000003F00000000007088080888700077
:10044600001C222121221C0000E010080810E000F8
:100456000000312222110F00000000C0C000000081
:1004660000000030300000000000008000000000A6
:10047600000080600000000000008040201008009E
:100486000001020408102000404040404040400067
:100496000404040404040400000810204080000042
:1004A6000020100804020100007048080808F00047
:1004B6000000003036010000C030C828E810E00017
:1004C6000718272423140B000000C038E0000000A2
:1004D600203C23020227382008F88888887000000C
:1004E600203F202020110E00C030080808083800E0
:1004F600071820202010080008F808080810E00057
:10050600203F202020100F0008F88888E8081000F7
:10051600203F20202320180008F88888E8081000CB
:10052600203F200003000000C03008080838000003
:1005360007182020221E020008F808000008F80804
:10054600203F210101213F20000808F8080800008B
:100556000020203F2020000000000808F8080800BE
:10056600C08080807F00000008F888C02818080036
:10057600203F20012638200008F80800000000006F
:10058600203F20202020300008F8F800F8F8080066
:10059600203F003F003F200008F830C00008F80860
:1005A600203F200007183F00E01008080810E00070
:1005B6000F10202020100F0008F808080808F00087
:1005C600203F210101010000E01008080810E000AA
:1005D6000F18242438504F0008F88888888870003F
:1005E600203F2000030C30200070880808083800DF
:1005F6000038202121221C00180808F808081800D5
:100606000000203F2000000008F808000008F80855
:10061600001F202020201F000878880000C8380806
:10062600000007380E010000F80800F80008F8007E
:10063600033C0700073C0300081868808068180818
:1006460020302C03032C30200838C800C838080096
:100656000000203F2000000010080808C8380800E5
:100666002038262120201800000000FE0202020089
:100676000000007F40404000000C30C00000000039
:10068600000000010638C00000020202FE00000061
:10069600004040407F000000000004020202040007
:1006A6000000000000000000000000000000000044
:1006B600808080808080808000020204000000002C
:1006C6000000000000000000000080808080000024
:1006D6000019242222223F2008F800808000000012
:1006E600003F112020110E000000008080800000D5
:1006F600000E112020201100000000808088F800E4
:10070600000E112020103F20000080808080000015
:10071600001F222222221300008080F08888881879
:100726000020203F20200000000080808080800084
:10073600006B94949493600008F800808080000019
:10074600203F210000203F200080989800000000F4
:100756000020203F20200000000000809898000024
:1007660000C08080807F000008F800008080800044
:10077600203F24022D302000000808F80000000069
:100786000020203F20200000808080808080800024
:10079600203F20003F20003F8080008080800000B6
:1007A600203F210000203F20000080808080000044
:1007B600001F202020201F00808000808000000075
:1007C60080FFA12020110E000000008080808000A4
:1007D600000E112020A0FF80808080008080800095
:1007E60020203F21200001000000808080808000C2
:1007F6000033242424241900008080E08080000037
:100806000000001F20200000808000000080800083
:10081600001F202020103F208080800000808080E4
:1008260000010E3008060100808000800080808074
:100836000F300C030C300F00008080008080800099
:100846000020312E0E3120008080800000808080C4
:1008560080818E7018060100008080808080800074
:100866000021302C2221300000000000807C020292
:1008760000000000003F404000000000FF000000B4
:1008860000000000FF0000000002027C8000000063
:100896000040403F0000000000060101020204047F
:1008A6000000000000000000201008FC03202010BB
:1008B6007F88888482E000000000000000000000BD
:1008C600000000000000000004040405040404FF06
:1008D60004040404040404000000000000000000F6
:1008E60000000000000000000020202020FF000083
:1008F60000FF40201008000000000000000000007B
:1009060000000000000000002060201010FF000022
:10091600003F40404040780000000000000000001A
:1009260000000000000000000000F888888888FFAA
:1009360088888888F8000000000000000000000099
:10094600000000000000000000001F080808087FE3
:10095600888888889F80F000000000000000000062
:100966000000000000000000001010101010FF1022
:1009760010101010F0000000000000000000000041
:100986000000000000000000008040201806010062
:10099600204080403F0000000000000000000000F2
:1009A600000000000000000020202020202020FF62
:1009B6002020202020202000000000000000000051
:1009C600000000000000000080804020100C0300A2
:1009D600030C102040808000000000000000000092
:1009E60000000000000000004030119690909196A3
:1009F6009090981413503000000000000000000092
:100A06000000000000000000040404040444847E86
:100A160006050404040404000000000000000000B1
:100A260000000000000000000000F8494A4C48F8A9
:100A3600484C4A49F8000000000000000000000091
:100A4600000000000000000010101312121212FF26
:100A56001212121213101000000000000000000015
:100A66000000000000000000000000FE2020202002
:100A7600203F202020200000000000000000000091
:100A860000000000000000000080601F0202020259
:100A96000202FE000000000000000000000000004E
:100AA60000000000000000001010D0FF901000FEB3
:100AB600020202FE0000000000000000000000002C
:100AC6000000000000000000040300FF0083601F18
:100AD6000000003F404078000000000000000000D9
:100AE6000000000000000000100C048414640506D9
:100AF600F404040404140C000000000000000000CC
:100B06000000000000000000048484444724140C04
:100B1600070C1424448404000000000000000000B8
:100B2600000000000000000002FA8282FE804020E1
:100B3600504C434C502040000000000000000000D4
:100B4600000000000000000008184884443F4044AC
:100B560058414E6058474000000000000000000069
:100B6600000000000000000000020212620202FE05
:100B760002024232020200000000000000000000F3
:100B8600000000000000000001010101010101FF59
:100B96000101010101010100000000000000000048
:100BA60000000000000000000040E05048444340C0
:100BB6004040485060C000000000000000000000F7
:100BC6000000000000000000000000FE4242424219
:100BD600424242FE0000000000000000000000004B
:100BE6000000000000000000000202C2020202FE35
:100BF6008282828282020000000000000000000063
:100C060000000000000000004040407F4040407F60
:100C1600404040404040400000000000000000000E
:100C26000000000000000000080888C8380C0B0807
:100C360008E8080808080800000000000000000096
:100C46000000000000000000020100FF4041414199
:100C5600417F41414141400000000000000000008A
:100C6600000000000000000080828282FE828282F4
:100C76008282FE8282828000000000000000000066
:100C86000000000000000000008040300F0000005F
:100C96000000FF000000000000000000000000004F
:100CA60000000000000000001010D0FF901000FEB1
:100CB600020202FE0000000000000000000000002A
:100CC6000000000000000000040300FF0083601F16
:100CD6000000003F404078000000000000000000D7
:100CE60000000000000000002010E824272424E46F
:100CF60024342C20E000000000000000000000006A
:100D0600000000000000000080601F090909097F3B
:100D1600090949897F00000000000000000000006A
:100D260000000000000000000000FC242424FC2534
:100D36002624FC24242404000000000000000000F7
:100D4600000000000000000040308F80844C5525D4
:100D56002525554C80808000000000000000000022
:100D66000000000000000000101010FF1010F0003E
:100D760000F8080808F80000000000000000000065
:100D860000000000000000008040300F40807F001F
:100D9600007F2020207F00000000000000000000EF
:100DA6000000000000000000404042CC0004F49423
:100DB60094FF9494F404000000000000000000007A
:100DC60000000000000000000040201F20484442B0
:100DD600415F41424448400000000000000000001E
:100DE60000000000000000000000FC242424FC2574
:100DF6002624FC2424240400000000000000000037
:100E0600000000000000000040308F80844C552513
:100E16002525554C80808000000000000000000061
:100E26000000000000000000002018C744444444AD
:100E3600FC4444444404000000000000000000009C
:100E46000000000000000000040404070404040479
:100E5600FF04040404040400000000000000000075
:100E66000000000000000000000000FE22222222F6
:100E760022222222FE0000000000000000000000E6
:100E860000000000000000008040300F0202020255
:100E9600020242827F000000000000000000000005
:100EA6000000000000000000000000FE8282828236
:100EB600828282FE000000000000000000000000A8
:100EC6000000000000000000000000FF404040401D
:100ED600404040FF0000000000000000000000004D
:100EE600000000000000000000FC848484FC001068
:100EF60010101010FF10100000000000000000008D
:100F06000000000000000000003F1010103F00002D
:100F1600010640807F000000000000000000000085
:100F2600000000000000000080402090888680803D
:100F360080838C102040800000000000000000002C
:100F4600000000000000000000804020180700405C
:100F560080403F000000000000000000000000008C
:100F660000000000000000002424A4FE232200C08C
:100F76003800FF00081060000000000000000000BC
:100F86000000000000000000080601FF0106818045
:100F9600404027100C030000000000000000000085
:080FA600000000000000000043
:06278200D2C57F017E00BC
:0B278800EF1FAC0670011E4C70F62223
:0F27A300D2C5D2C6122784C2C6122784C2C5224D
:0D27DC00C2C5C2C6122784122782D2C622AF
:0B272900122602122734AF0212260213
:0C273400122782C2C57F017E00022788A8
:0725FB00AA071227A37F7855
:10260200AD07E4FBED30E704D2C68002C2C6122752
:0F26120082C2C5122784ED25E0FD0BEBB408E56D
:012621002296
:0E27B2001225FB122734E4FF1227290227DC30
:0E27C0001225FB1227347F401227290227DC46
:1026B400EF24B0FFE4FD1226C7E4FDFF1226C7E4B1
:0326C400FD7F1087
:0E26C700A907ED60030227C0AF011227B2225F
:05253500900226EFF00A
:10253A00E4A3F0900227E0FFC3940850241226B4C3
:10254A00E4A3F0900226E0FF7D011226C79002283C
:10255A00E004F0E0C3948040EA900227E004F080AF
:01256A00D29E
:01256B00224D
:1026D500D3EF9400EE940040147D657C18ED1D70D9
:0D26E500011CED4C70F7EF1F70E61E80E346
:0126F20022C5
:10275700EF1FAA0670011E4A600BE4FDEDC3947BD0
:0527670050EE0D80F7AB
:01276C00224A
:0825CE009001E4E0FFA3E0FD31
:1025D6009001EAEFF0ED24B0FFE4FD1226C7E054C7
:1025E600F0C4540F4410FFE4FD1226C7E0540FFF59
:0525F600E4FD0226C710
:10276D00E4FD7F8D1226C7E4FD7F141226C7E4FD1C
:05277D007FAF0226C73A
:0E27CE00E4FD7F8D1226C0E4FD7FAE0226C71B
:10256C00E49001DDF09001DDE0FFC39408502112EE
:10257C0026B4E4A3F07D01E4FF1226C79001DEE04F
:10258C0004F0E0C3948040ED9001DDE004F080D5D0
:01259C00221C
:10259D00E4900229F0900229E0FFC3940850211223
:1025AD0026B4E4A3F07D017F011226C790022AE034
:1025BD0004F0E0C3948040ED900229E004F080D552
:0125CD0022EB
:0B1BB5009001E5EDF09001E4EFF0FD81
:101BC000E49001E8F0A3F0EB24E09001E8F0EDD31D
:101BD000947F400AE49001E4F0A3E02402F0900135
:101BE000E7E064106003021C6E1225CEE49001E968
:101BF000F09001E9E0FFC39408502C9001E8E075F3
:101C0000F010A42FF582E435F0F583E58224BEF5CB
:101C100082E5833402F583E493FF7D011226C790A9
:101C200001E9E004F080CA9001E4E0FFA3E004FDD4
:101C30001225D6E49001E9F09001E9E0FFC3940891
:101C400050729001E8E075F010A42FF582E435F0B1
:101C5000F583E58224C6F582E5833402F583E493B7
:101C6000FF7D011226C79001E9E004F080CA9001CF
:101C7000E7E0640C703E1225CEE49001E9F090019B
:101C8000E9E0FFC39406502C9001E8E075F006A44B
:101C90002496F582E5F03400F583E5822FF582E4A1
:101CA0003583F583E493FF7D011226C79001E9E0B7
:041CB00004F080CAF2
:011CB400220D
:0726F30090022BEFF0A90596
:1026FA007F017E00AD0119ED600C90022BE0FD7C9C
:06270A00001219B880EE78
:0127100022A6
:0E200700900210EFF0A3EDF0A3EAF0A3EBF0CF
:10201500E4900218F0900216F0900214E0FF90028E
:1020250016E0FEC39F40030220C1C3EF9E14FD7F4F
:102035000A1226F3900212E0FCA3E0FDCFCDCFCE2D
:10204500CCCE1219CA7C007D0A1219CA900217ED6E
:10205500F0A3E07036900214E014FF900216E0FE43
:10206500C39F5027A3E0701D900215E0FCC3138E9B
:10207500F0A4FF900210E02FFFA3E0FD9001E7EC34
:10208500F07B20802B9002187401F0900215E0FE81
:10209500C313FFA3E0FDEF8DF0A4FF900210E02F26
:1020A500FFA3E0FD900217E02430FB9001E7EEF07E
:0C20B500121BB5900216E004F002201E81
:0120C10022FC
:1023F2009001DDEFF0A3EDF0A3EBF0A3EAF0A3E987
:01240200F0E9
:10240300E49001E3F09001DFE0FBA3E0FAA3E0F93D
:102413009001E3E0F582758300121957FB602F905A
:1024230001DDE0FFA3E0FD9001E2E09001E7F0129F
:102433001BB59001DDE02408F0E0D394784007E475
:0E244300F0A3E02402F09001E3E004F080B783
:012451002268
:0D20C200900223EBF0900221EFF0A3EDF06F
:1020CF00E4900225F01225D6E4900224F090022429
:1020DF00E0FFC394105032900223E075F040A42427
:1020EF00AEF582E5F03408F583E5822FF582E4350D
:1020FF0083F583E493FF7D011226C7900225E00448
:10210F00F0900224E004F080C4900221E0FFA3E0ED
:10211F0004FD1225D6E4900224F0900224E0FFC3C0
:10212F0094105032900223E075F040A424CEF58233
:10213F00E5F03408F583E5822FF582E43583F583E6
:10214F00E493FF7D011226C7900225E004F0900270
:06215F0024E004F080C43E
:012165002257
:0A216600900205EFF0900207EBF085
:10217000E490020CF0A3F0900207E004F0A3E00466
:10218000F0E0FF54077008EF131313541F800A90F8
:102190000208E0131313541F0490020FF090020F73
:1021A000EDF0900208E0FF90020FE0FDC39F504E5B
:1021B000900205E0FF1225D6900205E090020EF095
:1021C000900207E0FF90020EE0C39F5029900209A1
:1021D000E0FBA3E0FAA3E0F9A3E475F001121A1FF3
:1021E00085F082F583121957FF7D011226C79002F0
:0E21F0000EE004F080CA90020FE004F080A41C
:0121FE0022BE
:101DA4009001DD7403F0A37420F07B017A0179DDE6
:101DB4007F041213139001DD7402F0A37440F07BCE
:101DC400017A0179DD7F04121313E4FD7FAE12263C
:101DD400BAE4FD7F401226C7E4FD7FB01226C7E4B3
:101DE400FD7F811226C7E4FD7FFF1226C7E4FD7F35
:101DF400A11226C7E4FD7FA61226C7E4FD7FA81220
:101E040026C7E4FD7F3F1226C7E4FD7FC81226C71C
:101E1400E4FD7FD31226C7E4FDFF1226C7E4FD7F4D
:101E2400D51226C7E4FD7F801226C7E4FD7FD812B1
:101E340026C7E4FD7F051226C7E4FD7FD91226C715
:101E4400E4FD7FF11226C7E4FD7FDA1226C7E4FD24
:101E54007F121226C7E4FD7FDB1226C7E4FD7F3024
:101E64001226C7E4FD7F8D1226C7E4FD7F141226D7
:081E7400C7E4FD7FAF0226C7A1
:1016E00060800159000000000000000000000000C0
:1016F00000000000000000000000000000000000EA
:1017000000000000000000000000000000000000D9
:1017100000000000000000000000000000000000C9
:1017200000000000000000000000000000000000B9
:1017300000000000000000000000000000000000A9
:101740000000000000000000000000000000000099
:101750000000000000000000000000000000000089
:0C176000000000004101D9004101DA0046
:10269100E5A2543FF5A2E598543F4440F59875D71B
:1026A100E875D6FF758E14438E01D2BCD2ACD29C94
:0326B100D2AF2283
:030023000224B004
:0B24B000C0E0C083C082C0D075D0081F
:1024BB0030982CC298AF999001D9E0C394805010FA
:1024CB00E0FE04F074592EF582E43401F583EFF04D
:1024DB00EFB40D0B9001DA7401F09001D9E4F030F8
:0624EB009904C299C20A27
:0924F100D0D0D082D083D0E032BB
:0F274000A3E475F001121A1FA9F0FA12193EFF57
:08274F00200AFDD20A8F992235
:100003009001DFEBF0A3EAF0A3E9F0ED4C600F9071
:0F00130001DFE0FB122740ED1D70F01C80ED2295
:0C27E900C2AC8F993099FDC299D2AC228D
:10266D009001E9EBF0A3EAF0A3E9F09001E9E0FBBA
:10267D00A3E0FAA3E0F912193E60089001E91227D0
:04268D004080E8227F
:10220B00021A7BE493A3F8E493A34003F68001F254
:10221B0008DFF48029E493A3F85407240CC8C333D4
:10222B00C4540F4420C8834004F456800146F6DFA3
:10223B00E4800B0102040810204080901567E47EB7
:10224B00019360BCA3FF543F30E509541FFEE49398
:10225B00A360010ECF54C025E060A840B8E493A35F
:10226B00FAE493A3F8E493A3C8C582C8CAC583CA8A
:10227B00F0A3C8C582C8CAC583CADFE9DEE780BE42
:01176C00007C
:10193E00BB010689828A83E0225002E722BBFE02A7
:09194E00E32289828A83E49322DA
:10195700BB010CE58229F582E5833AF583E0225045
:1019670006E92582F8E622BBFE06E92582F8E2228F
:0D197700E58229F582E5833AF583E49322A9
:10198400BB010689828A83F0225002F722BBFE0142
:02199400F3223C
:10199600F8BB010DE58229F582E5833AF583E8F087
:1019A600225006E92582C8F622BBFE05E92582C833
:0219B600F2221B
:1019B800EF8DF0A4A8F0CF8CF0A428CE8DF0A42E43
:0219C800FE22FD
:1019CA00BC000BBE0029EF8DF084FFADF022E4CC01
:1019DA00F875F008EF2FFFEE33FEEC33FCEE9DECCA
:1019EA00984005FCEE9DFE0FD5F0E9E4CEFD22ED10
:1019FA00F8F5F0EE8420D21CFEADF075F008EF2F5A
:101A0A00FFED33FD4007985006D5F0F222C398FD4A
:051A1A000FD5F0EA22E7
:101A1F00A3F8E0C5F025F0F0E5821582700215837A
:061A2F00E0C838F0E822D7
:100FAE00E51024E0F582E43401F583E0051022908B
:100FBE0001DD3007039001E0E475F001121A3502ED
:100FCE00193E2000E97F2ED2008018EF540F249096
:100FDE00D43440D4FF30040BEF24BFB41A005003B6
:100FEE002461FFE511600215110514E51470020568
:100FFE001330070E9001DDE475F001121A35EF0281
:10100E0019840227E97403D2078003E4C207F5109E
:10101E009001DD121A4CE4F511F513F514E511608B
:10102E00077F20120FF180F57512FFC201C200C2B8
:10103E0002C203C205C206C208120FBDFF700D30F8
:10104E0007057F00121002AF14AE1322B4255FC243
:10105E00D5C204120FBDFF24D0B40A00501A75F089
:10106E000A781130D50508B6FF0106C6A426F6206B
:10107E00D5047002D20380D924CFB41A00EF5004E5
:10108E00C2E5D204021203D20180C6D20080C0D2C1
:10109E000280BCD2D580BAD20580B47F20120FF167
:1010AE002002077401B5110040F1120FAEFF120FAE
:1010BE00F102102BD208D2068095120FAEFB120F42
:1010CE00AEFA120FAEF94A4B700679D47A127BFF44
:1010DE0020022EE511602A7E008E82758300121981
:1010EE005760060EEE651270F0C2D5EBC0E0EAC096
:1010FE00E0E9C0E0EE12124AD0E0F9D0E0FAD0E01A
:10110E00FB12193EFF60AAEBC0E0EAC0E0E9C0E0C6
:10111E00120FF1D0E02401F9D0E03400FAD0E0FB58
:10112E00E5120460DCD512D980877BFF7A127946EE
:10113E00D202809C791080027908C206C20880080B
:10114E00D2D5790A8004790AC2D5E512047002F567
:10115E0012E4FAFDFEFF120FAEFC7B082001131203
:10116E000FAEFD7B1030000A120FAEFE120FAEFF57
:10117E007B20EC3382D592D55013C3E43000069F0A
:10118E00FFE49EFEE42001039DFDE49CFCE4CBF80D
:10119E00C201EC700CCFCECDCCE824F8F870F38001
:1011AE0017C3EF33FFEE33FEED33FDEC33FCEB33C1
:1011BE00FB994002FB0FD8E9EB300105F8D0E0C4F3
:1011CE0048B201C0E00AEC4D4E4F78207B0070C251
:1011DE00EAB5120040BCC0E012124CD0F0D0E020B4
:1011EE000104C4C0E0C4B201C0F0120FDAD0F0D5D1
:1011FE00F0EB02102B121A5510C8531142581099C9
:10120E004C10954211464F114E44114E4910AE43AB
:08121E00115455113846113836
:101226004511384712F450109D2D10A12E10C42BD5
:1012360010A52310C22012DD2A105D48000010BC44
:101246003F3F3F00790AA2D5200314300509B910A3
:10125600020404B9080104A2D520060250010420A4
:1012660002689202B511005034C0E07F20300319A5
:101276007F30A20272067205500F1212A3C202C27A
:1012860006C205C2087F30800F300503E9C0E012B0
:101296000FF1300503D0E0F9D0E0B511CC300517D9
:1012A6007F30B9100C120FF17F583004077F788019
:1012B60003B90803120FF13002057F2D020FF17FEB
:1012C600202008F87F2B2006F322920280CF286E7A
:1012D600756C6C2900D201120FAE3001F8C201788C
:1012E6001130D50108F602105D2D50434958120FF2
:1012F600AE2403B405004001E49012EF93120FE20E
:0D130600743A120FE2D20375110402114275
:101A3500F8E0FBA3A3E0F925F0F0E582158270023A
:071A45001583E0FA38F022DE
:091A4C00EBF0A3EAF0A3E9F0229B
:101A5500D083D082F8E4937012740193700DA3A320
:101A650093F8740193F5828883E473740293686034
:061A7500EFA3A3A380DF34
:00000001FF
