:03000000021C617E
:0C1C6100787FE4F6D8FD758121021CA8F4
:101E9F00676F20676F20676F200D0A006E6F7720C6
:101EAF0070757368006E6F772070757368203A20B5
:0F1EBF00002564000D0A0068656C6C6F0D0A0049
:10180800E4900086F0A3F078887C007D017BFF7A65
:101818001E79C6FE7F081215C7E4900084F0A3F075
:10182800900083F0900082F0121EFB121F717BFF64
:101838007A1E799F120FA9121904121E3D7BFF7A96
:101848001E79AB900095740CF0E4FDFF121D5C7FCF
:101858006412205B121CED900083EFF0900082E090
:101868006F60ECA3E0900082F07BFF7A1E79B412DF
:101878000FA9E4900084F0A3F0900084E0FEA3E0B8
:10188800FFC39407EE94005067900083E0FEA8071A
:10189800088002C313D8FC30E02F7BFF7A1E79C082
:1018A800900084E0FFA3E0900093CFF0A3EFF01244
:1018B8000FA9900084A3E0FE75F008A4FFEE243081
:1018C800FB90009A740CF08012900084A3E075F0ED
:1018D80008A4FF90009A740CF07B207D041217086E
:1018E800900085E004F07091900084E004F0808915
:0C18F8007BFF7A1E79C3120FA90218575B
:0F205B007D527C03ED1D70011C144C70F7DFF1FA
:01206A002253
:1012A300EFD3940740037F01221215EDFED394037D
:1012B30040037F0222EF7041EE700B900001121683
:1012C30006F4529352941215EDB4010B90000112DF
:1012D30016064293F452941215EDFEB4020A9000DE
:1012E3000112160642934294EEB4030D90000112CC
:1012F3001606FEF45293EE4294EF64017043121506
:10130300EDFE700B900001121606F452915292EE0C
:10131300B4010B9000011216064291F45292121579
:10132300EDB4020A90000112160642914292121580
:10133300EDB4030D900001121606FEF45291EE4235
:1013430092EF640270431215EDFE700B90000112D0
:101353001606F452955296EEB4010B900001121644
:10136300064295F452961215EDB4020A900001124A
:101373001606429542961215EDB4030D9000011224
:101383001606FEF45295EE4296EF6403704312156F
:10139300EDFE700B900001121606F452B152B2EE3C
:1013A300B4010B90000112160642B1F452B21215A9
:1013B300EDB4020A90000112160642B142B21215B0
:1013C300EDB4030D900001121606FEF452B1EE4285
:1013D300B2EF640470431215EDFE700B900001121E
:1013E3001606F452B352B4EEB4010B900001121678
:1013F3000642B3F452B41215EDB4020A900001127E
:10140300160642B342B41215EDB4030D9000011257
:101413001606FEF452B3EE42B4EF640570431215A0
:10142300EDFE700B900001121606F452C952CAEE7B
:10143300B4010B90000112160642C9F452CA1215E8
:10144300EDB4020A90000112160642C942CA1215EF
:10145300EDB4030D900001121606FEF452C9EE42DC
:10146300CAEF640670431215EDFE700B9000011273
:101473001606F452CB52CCEEB4010B9000011216B7
:101483000642CBF452CC1215EDB4020A90000112BD
:10149300160642CB42CC1215EDB4030D9000011297
:1014A3001606FEF452CBEE42CCEF640770431215DE
:1014B300EDFF700B900001121606F452E152E2EFB9
:1014C300B4010B90000112160642E1F452E2121528
:1014D300EDB4020A90000112160642E142E212152F
:1014E300EDB4030D900001121606FFF452E1EF4232
:0414F300E27F002272
:101BD4006080000000000000000000000000000021
:101BE40000000000000000000000000000000000F1
:101BF40000000000000000000000000000000000E1
:101C040000000000000000000000000000000000D0
:101C140000000000000000000000000000000000C0
:101C240000000000000000000000000000000000B0
:101C340000000000000000000000000000000000A0
:101C44000000000000000000000000000000000090
:0C1C540000000000410080004100810001
:101F7100E5A2543FF5A2E598543F4440F59875D742
:101F8100E875D6FF758E14438E01D2BCD2ACD29CBB
:031F9100D2AF22AA
:03002300021DBCFF
:0B1DBC00C0E0C083C082C0D075D0081A
:101DC70030982CC298AF99900080E0C3948050104F
:101DD700E0FE04F074002EF582E43400F583EFF0A2
:101DE700EFB40D0B9000817401F0900080E4F030A7
:061DF7009904C299C20923
:091DFD00D0D0D082D083D0E032B6
:0F1FF100A3E475F00112169AA9F0FA1215EDFF8C
:082000002009FDD2098F99228D
:100003009000D1EBF0A3EAF0A3E9F0ED4C600F9080
:0F00130000D1E0FB121FF1ED1D70F01C80ED22FB
:0C20B100C2AC8F993099FDC299D2AC22CC
:101F4D009000D4EBF0A3EAF0A3E9F09000D4E0FB0D
:101F5D00A3E0FAA3E0F91215ED60089000D4121F6A
:041F6D00F180E822F5
:101EFB00E4900090F0A3747CF07B017A0079907FE2
:101F0B00031212A39000917403F07B017A00799075
:0A1F1B007F051212A3E4900000F00D
:011F25002299
:101CED00900000E030B20554FEF080034401F09006
:101CFD000000E030B30554FDF080034402F0900085
:101D0D0000E030B40554FBF080034404F090000073
:101D1D00E030C80554F7F080034408F0900000E06F
:101D2D0030C90554EFF080034410F0900000E0300E
:101D3D00B50554DFF080034420F0900000E030B68C
:0F1D4D000554BFF080034440F0900000E0FF22F7
:100026000000000000000000002F00000000070094
:10003600070000147F147F1400242A7F2A1200620E
:1000460064081323003649552250000005030000BA
:1000560000001C224100000041221C000014083E42
:1000660008140008083E0808000000A06000000808
:10007600080808080000606000000020100804025C
:10008600003E5149453E0000427F4000004261511A
:100096004946002141454B31001814127F100027B4
:1000A60045454539003C4A49493000017109050377
:1000B60000364949493600064949291E00003636A8
:1000C600000000005636000000081422410000140B
:1000D60014141414000041221408000201510906E8
:1000E60000324959513E007C1211127C007F494969
:1000F6004936003E41414122007F4141221C007F9A
:1001060049494941007F09090901003E4149497AA7
:10011600007F0808087F0000417F41000020404121
:100126003F01007F08142241007F40404040007F8D
:10013600020C027F007F0408107F003E4141413ED1
:10014600007F09090906003E4151215E007F091919
:1001560029460046494949310001017F0101003F16
:100166004040403F001F2040201F003F4038403F96
:1001760000631408146300070870080700615149FA
:10018600454300007F41410000552A552A5500008D
:1001960041417F000004020102040040404040400B
:1001A600000001020400002054545478007F4844A3
:1001B600443800384444442000384444487F0038DA
:1001C6005454541800087E0901020018A4A4A47C03
:1001D600007F080404780000447D400000408084CD
:1001E6007D00007F102844000000417F4000007C15
:1001F60004180478007C0804047800384444443821
:1002060000FC242424180018242418FC007C08046C
:10021600040800485454542000043F444020003C45
:100226004040207C001C2040201C003C4030403CCC
:10023600004428102844001CA0A0A07C004464545C
:100246004C441414141414140000000000000000A0
:100256000000000000000000000000F800000000A0
:10026600000000333000000000100C06100C0600E1
:10027600000000000000000040C07840C078400048
:10028600043F04043F040400007088FC08300000AA
:10029600001820FF211E0000F008F000E018000002
:1002A60000211C031E211E0000F0088870000000BB
:1002B6001E2123241927211010160E00000000000D
:1002C6000000000000000000000000E0180402002A
:1002D600000000071820400000020418E00000009B
:1002E6000040201807000000404080F08040400099
:1002F6000202010F01020200000000F000000000EF
:100306000101011F010101000000000000000000C2
:1003160080B0700000000000000000000000000037
:1003260000010101010101010000000000000000C0
:10033600003030000000000000000000806018045B
:10034600006018060100000000E010080810E00038
:10035600000F102020100F00001010F80000000001
:100366000020203F20200000007008080888700048
:1003760000302824222130000030088888483000C8
:100386000018202020110E000000C02010F80000E8
:1003960000070424243F240000F808888808080081
:1003A6000019212020110E0000E010888818000096
:1003B600000F112020110E0000380808C838080068
:1003C6000000003F000000000070880808887000E8
:1003D600001C222121221C0000E010080810E00069
:1003E6000000312222110F00000000C0C0000000F2
:1003F6000000003030000000000000800000000017
:10040600000080600000000000008040201008000E
:1004160000010204081020004040404040404000D7
:1004260004040404040404000008102040800000B2
:100436000020100804020100007048080808F000B7
:100446000000003036010000C030C828E810E00087
:100456000718272423140B000000C038E000000012
:10046600203C23020227382008F88888887000007C
:10047600203F202020110E00C03008080808380050
:10048600071820202010080008F808080810E000C7
:10049600203F202020100F0008F88888E808100068
:1004A600203F20202320180008F88888E80810003C
:1004B600203F200003000000C03008080838000074
:1004C60007182020221E020008F808000008F80875
:1004D600203F210101213F20000808F808080000FC
:1004E6000020203F2020000000000808F80808002F
:1004F600C08080807F00000008F888C028180800A7
:10050600203F20012638200008F8080000000000DF
:10051600203F20202020300008F8F800F8F80800D6
:10052600203F003F003F200008F830C00008F808D0
:10053600203F200007183F00E01008080810E000E0
:100546000F10202020100F0008F808080808F000F7
:10055600203F210101010000E01008080810E0001A
:100566000F18242438504F0008F8888888887000AF
:10057600203F2000030C302000708808080838004F
:100586000038202121221C00180808F80808180045
:100596000000203F2000000008F808000008F808C6
:1005A600001F202020201F000878880000C8380877
:1005B600000007380E010000F80800F80008F800EF
:1005C600033C0700073C0300081868808068180889
:1005D60020302C03032C30200838C800C838080007
:1005E6000000203F2000000010080808C838080056
:1005F6002038262120201800000000FE02020200FA
:100606000000007F40404000000C30C000000000A9
:10061600000000010638C00000020202FE000000D1
:10062600004040407F000000000004020202040077
:1006360000000000000000000000000000000000B4
:10064600808080808080808000020204000000009C
:100656000000000000000000000080808080000094
:100666000019242222223F2008F800808000000082
:10067600003F112020110E00000000808080000045
:10068600000E112020201100000000808088F80054
:10069600000E112020103F20000080808080000086
:1006A600001F222222221300008080F088888818EA
:1006B6000020203F202000000000808080808000F5
:1006C600006B94949493600008F80080808000008A
:1006D600203F210000203F20008098980000000065
:1006E6000020203F20200000000000809898000095
:1006F60000C08080807F000008F8000080808000B5
:10070600203F24022D302000000808F800000000D9
:100716000020203F20200000808080808080800094
:10072600203F20003F20003F808000808080000026
:10073600203F210000203F200000808080800000B4
:10074600001F202020201F008080008080000000E5
:1007560080FFA12020110E00000000808080800014
:10076600000E112020A0FF80808080008080800005
:1007760020203F2120000100000080808080800032
:100786000033242424241900008080E080800000A7
:100796000000001F202000008080000000808000F4
:1007A600001F202020103F20808080000080808055
:1007B60000010E30080601008080008000808080E5
:1007C6000F300C030C300F0000808000808080000A
:1007D6000020312E0E312000808080000080808035
:1007E60080818E70180601000080808080808000E5
:1007F6000021302C2221300000000000807C020203
:1008060000000000003F404000000000FF00000024
:1008160000000000FF0000000002027C80000000D3
:100826000040403F000000000006010102020404EF
:100836000000000000000000201008FC032020102B
:100846007F88888482E0000000000000000000002D
:10085600000000000000000004040405040404FF76
:100866000404040404040400000000000000000066
:1008760000000000000000000020202020FF0000F3
:1008860000FF4020100800000000000000000000EB
:1008960000000000000000002060201010FF000093
:1008A600003F40404040780000000000000000008B
:1008B60000000000000000000000F888888888FF1B
:1008C60088888888F800000000000000000000000A
:1008D600000000000000000000001F080808087F54
:1008E600888888889F80F0000000000000000000D3
:1008F6000000000000000000001010101010FF1093
:1009060010101010F00000000000000000000000B1
:1009160000000000000000000080402018060100D2
:10092600204080403F000000000000000000000062
:10093600000000000000000020202020202020FFD2
:1009460020202020202020000000000000000000C1
:10095600000000000000000080804020100C030012
:10096600030C102040808000000000000000000002
:100976000000000000000000403011969090919613
:100986009090981413503000000000000000000002
:100996000000000000000000040404040444847EF7
:1009A6000605040404040400000000000000000022
:1009B60000000000000000000000F8494A4C48F81A
:1009C600484C4A49F8000000000000000000000002
:1009D600000000000000000010101312121212FF97
:1009E6001212121213101000000000000000000086
:1009F6000000000000000000000000FE2020202073
:100A0600203F202020200000000000000000000001
:100A160000000000000000000080601F02020202C9
:100A26000202FE00000000000000000000000000BE
:100A360000000000000000001010D0FF901000FE23
:100A4600020202FE0000000000000000000000009C
:100A56000000000000000000040300FF0083601F88
:100A66000000003F40407800000000000000000049
:100A76000000000000000000100C04841464050649
:100A8600F404040404140C0000000000000000003C
:100A96000000000000000000048484444724140C75
:100AA600070C142444840400000000000000000029
:100AB600000000000000000002FA8282FE80402052
:100AC600504C434C50204000000000000000000045
:100AD600000000000000000008184884443F40441D
:100AE60058414E60584740000000000000000000DA
:100AF600000000000000000000020212620202FE76
:100B06000202423202020000000000000000000063
:100B1600000000000000000001010101010101FFC9
:100B260001010101010101000000000000000000B8
:100B360000000000000000000040E0504844434030
:100B46004040485060C00000000000000000000067
:100B56000000000000000000000000FE4242424289
:100B6600424242FE000000000000000000000000BB
:100B76000000000000000000000202C2020202FEA5
:100B860082828282820200000000000000000000D3
:100B960000000000000000004040407F4040407FD1
:100BA600404040404040400000000000000000007F
:100BB6000000000000000000080888C8380C0B0878
:100BC60008E8080808080800000000000000000007
:100BD6000000000000000000020100FF404141410A
:100BE600417F4141414140000000000000000000FB
:100BF600000000000000000080828282FE82828265
:100C06008282FE82828280000000000000000000D6
:100C16000000000000000000008040300F000000CF
:100C26000000FF00000000000000000000000000BF
:100C360000000000000000001010D0FF901000FE21
:100C4600020202FE0000000000000000000000009A
:100C56000000000000000000040300FF0083601F86
:100C66000000003F40407800000000000000000047
:100C760000000000000000002010E824272424E4DF
:100C860024342C20E00000000000000000000000DA
:100C9600000000000000000080601F090909097FAC
:100CA600090949897F0000000000000000000000DB
:100CB60000000000000000000000FC242424FC25A5
:100CC6002624FC2424240400000000000000000068
:100CD600000000000000000040308F80844C552545
:100CE6002525554C80808000000000000000000093
:100CF6000000000000000000101010FF1010F000AF
:100D060000F8080808F800000000000000000000D5
:100D160000000000000000008040300F40807F008F
:100D2600007F2020207F000000000000000000005F
:100D36000000000000000000404042CC0004F49493
:100D460094FF9494F40400000000000000000000EA
:100D560000000000000000000040201F2048444220
:100D6600415F41424448400000000000000000008E
:100D760000000000000000000000FC242424FC25E4
:100D86002624FC24242404000000000000000000A7
:100D9600000000000000000040308F80844C552584
:100DA6002525554C808080000000000000000000D2
:100DB6000000000000000000002018C7444444441E
:100DC600FC4444444404000000000000000000000D
:100DD60000000000000000000404040704040404EA
:100DE600FF040404040404000000000000000000E6
:100DF6000000000000000000000000FE2222222267
:100E060022222222FE000000000000000000000056
:100E160000000000000000008040300F02020202C5
:100E2600020242827F000000000000000000000075
:100E36000000000000000000000000FE82828282A6
:100E4600828282FE00000000000000000000000018
:100E56000000000000000000000000FF404040408D
:100E6600404040FF000000000000000000000000BD
:100E7600000000000000000000FC848484FC0010D8
:100E860010101010FF1010000000000000000000FD
:100E96000000000000000000003F1010103F00009E
:100EA600010640807F0000000000000000000000F6
:100EB60000000000000000008040209088868080AE
:100EC60080838C102040800000000000000000009D
:100ED60000000000000000000080402018070040CD
:100EE60080403F00000000000000000000000000FD
:100EF60000000000000000002424A4FE232200C0FD
:100F06003800FF000810600000000000000000002C
:100F16000000000000000000080601FF01068180B5
:100F2600404027100C0300000000000000000000F5
:080F36000000000000000000B3
:06204A00D2C57F017E00FB
:0B205000EF1FAC0670011E4C70F62262
:0F206B00D2C5D2C612204CC2C612204CC2C5220A
:0D20A400C2C5C2C612204C12204AD2C6226C
:0B200800121F2D122013AF02121F2D1B
:0C20130012204AC2C57F017E000220504E
:071F2600AA0712206B7F786F
:101F2D00AD07E4FBED30E704D2C68002C2C6122035
:0F1F3D004AC2C512204CED25E0FD0BEBB408E5C0
:011F4C002272
:0E207A00121F26122013E4FF1220080220A4D9
:0E208800121F261220137F401220080220A4EF
:101F9400EF24B0FFE4FD121FA7E4FDFF121FA7E426
:031FA400FD7F10AE
:0E1FA700A907ED6003022088AF0112207A2204
:051E06009000D7EFF091
:101E0B00E4A3F09000D8E0FFC394085024121F9471
:101E1B00E4A3F09000D7E0FF7D01121FA79000D93B
:101E2B00E004F0E0C3948040EA9000D8E004F08036
:011E3B00D2D4
:011E3C002283
:101FB500D3EF9400EE940040147D657C18ED1D7000
:0D1FC500011CED4C70F7EF1F70E61E80E36D
:011FD20022EC
:10201F00EF1FAA0670011E4A600BE4FDEDC3947B0F
:05202F0050EE0D80F7EA
:012034002289
:081ECE00900097E0FFA3E0FD86
:101ED60090009DEFF0ED24B0FFE4FD121FA7E05443
:101EE600F0C4540F4410FFE4FD121FA7E0540FFF87
:051EF600E4FD021FA73E
:10203500E4FD7F8D121FA7E4FD7F14121FA7E4FDA9
:052045007FAF021FA7A0
:0E209600E4FD7F8D121FA0E4FD7FAE021FA7A8
:101E3D00E4900090F0900090E0FFC39408502112C0
:101E4D001F94E4A3F07D01E4FF121FA7900091E021
:101E5D0004F0E0C3948040ED900090E004F080D554
:011E6D002252
:101E6E00E49000DAF09000DAE0FFC39408502112FB
:101E7E001F94E4A3F07D017F01121FA79000DBE009
:101E8E0004F0E0C3948040ED9000DAE004F080D5D9
:011E9E002221
:0B170800900098EDF0900097EFF0FDCE
:10171300E490009BF0A3F0EB24E090009BF0EDD36A
:10172300947F400AE4900097F0A3E02402F0900035
:101733009AE0641060030217C1121ECEE490009C6D
:10174300F090009CE0FFC39408502C90009BE07540
:10175300F010A42FF582E435F0F583E582244EF5ED
:1017630082E5833402F583E493FF7D01121FA79082
:10177300009CE004F080CA900097E0FFA3E004FD22
:10178300121ED6E490009CF090009CE0FFC39408E6
:10179300507290009BE075F010A42FF582E435F0B1
:1017A300F583E5822456F582E5833402F583E493D9
:1017B300FF7D01121FA790009CE004F080CA9000F7
:1017C3009AE0640C703E121ECEE490009CF09000F0
:1017D3009CE0FFC39406502C90009BE075F006A498
:1017E3002426F582E5F03400F583E5822FF582E4C3
:1017F3003583F583E493FF7D01121FA790009CE0DE
:0418030004F080CAA3
:0118070022BE
:071FD3009000DCEFF0A9050E
:101FDA007F017E00AD0119ED600C9000DCE0FD7C14
:061FEA000012163380EE28
:011FF00022CE
:0E19DC009000C3EFF0A3EDF0A3EAF0A3EBF050
:1019EA00E49000CBF09000C9F09000C7E0FF9000AF
:1019FA00C9E0FEC39F4003021A96C3EF9E14FD7FFF
:101A0A000A121FD39000C5E0FCA3E0FDCFCDCFCED4
:101A1A00CCCE1216457C007D0A1216459000CAEDFE
:101A2A00F0A3E070369000C7E014FF9000C9E0FE12
:101A3A00C39F5027A3E0701D9000C8E0FCC3138E1B
:101A4A00F0A4FF9000C3E02FFFA3E0FD90009AEC02
:101A5A00F07B20802B9000CB7401F09000C8E0FE50
:101A6A00C313FFA3E0FDEF8DF0A4FF9000C3E02FA6
:101A7A00FFA3E0FD9000CAE02430FB90009AEEF04C
:0C1A8A001217089000C9E004F00219F3E4
:011A9600222D
:101D5C00900090EFF0A3EDF0A3EBF0A3EAF0A3E971
:011D6C00F086
:101D6D00E4900096F0900092E0FBA3E0FAA3E0F976
:101D7D00900096E0F582758300121606FB602F9099
:101D8D000090E0FFA3E0FD900095E090009AF01226
:101D9D001708900090E02408F0E0D394784007E411
:0E1DAD00F0A3E02402F0900096E004F080B76E
:011DBB002205
:0D1A97009000CEEBF09000CCEFF0A3EDF04E
:101AA400E49000D0F0121ED6E49000CFF09000CF66
:101AB400E0FFC3941050329000CEE075F040A424AF
:101AC4003EF582E5F03408F583E5822FF582E435AE
:101AD40083F583E493FF7D01121FA79000D0E004F7
:101AE400F09000CFE004F080C49000CCE0FFA3E0CD
:101AF40004FD121ED6E49000CFF09000CFE0FFC3A7
:101B0400941050329000CEE075F040A4245EF5822B
:101B1400E5F03408F583E5822FF582E43583F58317
:101B2400E493FF7D01121FA79000D0E004F0900021
:061B3400CFE004F080C4C4
:011B3A002288
:0A1B3B009000B8EFF09000BAEBF054
:101B4500E49000BFF0A3F09000BAE004F0A3E00435
:101B5500F0E0FF54077008EF131313541F800A9029
:101B650000BBE0131313541F049000C2F09000C291
:101B7500EDF09000BBE0FF9000C2E0FDC39F504E2A
:101B85009000B8E0FF121ED69000B8E09000C1F0BA
:101B95009000BAE0FF9000C1E0C39F50299000BCBF
:101BA500E0FBA3E0FAA3E0F9A3E475F00112169AAD
:101BB50085F082F583121606FF7D01121FA790009E
:0E1BC500C1E004F080CA9000C2E004F080A4E9
:011BD30022EF
:101904009000907403F0A37420F07B017A00799026
:101914007F041212A39000907402F0A37440F07B31
:10192400017A0079907F041212A3E4FD7FAE121FA6
:101934009AE4FD7F40121FA7E4FD7FB0121FA7E4C5
:10194400FD7F81121FA7E4FD7FFF121FA7E4FD7F27
:10195400A1121FA7E4FD7FA6121FA7E4FD7FA81212
:101964001FA7E4FD7F3F121FA7E4FD7FC8121FA736
:10197400E4FD7FD3121FA7E4FDFF121FA7E4FD7F40
:10198400D5121FA7E4FD7F80121FA7E4FD7FD812A4
:101994001FA7E4FD7F05121FA7E4FD7FD9121FA72F
:1019A400E4FD7FF1121FA7E4FD7FDA121FA7E4FD17
:1019B4007F12121FA7E4FD7FDB121FA7E4FD7F3017
:1019C400121FA7E4FD7F8D121FA7E4FD7F14121FD1
:0819D400A7E4FD7FAF021FA78D
:101C6D00021808E493A3F8E493A34003F68001F26D
:101C7D0008DFF48029E493A3F85407240CC8C33378
:101C8D00C4540F4420C8834004F456800146F6DF47
:101C9D00E4800B0102040810204080901BD4E47EE8
:101CAD00019360BCA3FF543F30E509541FFEE4933C
:101CBD00A360010ECF54C025E060A840B8E493A303
:101CCD00FAE493A3F8E493A3C8C582C8CAC583CA2E
:101CDD00F0A3C8C582C8CAC583CADFE9DEE780BEE6
:011C60000083
:1014F700E709F608DFFA8046E709F208DFFA803ED7
:1015070088828C83E709F0A3DFFA8032E309F608C3
:10151700DFFA8078E309F208DFFA807088828C832B
:10152700E309F0A3DFFA806489828A83E0A3F608DF
:10153700DFFA805889828A83E0A3F208DFFA804CB9
:1015470080D280FA80C680D4806980F28033801090
:1015570080A680EA809A80A880DA80E280CA8033F9
:1015670089828A83ECFAE493A3C8C582C8CCC58371
:10157700CCF0A3C8C582C8CCC583CCDFE9DEE78041
:101587000D89828A83E493A3F608DFF9ECFAA9F0C0
:10159700EDFB2289828A83ECFAE0A3C8C582C8CC16
:1015A700C583CCF0A3C8C582C8CCC583CCDFEADE2F
:1015B700E880DB89828A83E493A3F208DFF980CC91
:1015C70088F0EF60010E4E60C388F0ED2402B4048A
:1015D7000050B9F582EB2402B4040050AF23234531
:0615E700822390154773FA
:1015ED00BB010689828A83E0225002E722BBFE02FC
:0915FD00E32289828A83E493222F
:10160600BB010CE58229F582E5833AF583E0225099
:1016160006E92582F8E622BBFE06E92582F8E222E3
:0D162600E58229F582E5833AF583E49322FD
:10163300EF8DF0A4A8F0CF8CF0A428CE8DF0A42ECB
:02164300FE2285
:10164500BC000BBE0029EF8DF084FFADF022E4CC89
:10165500F875F008EF2FFFEE33FEEC33FCEE9DEC52
:10166500984005FCEE9DFE0FD5F0E9E4CEFD22ED98
:10167500F8F5F0EE8420D21CFEADF075F008EF2FE2
:10168500FFED33FD4007985006D5F0F222C398FDD3
:051695000FD5F0EA2270
:10169A00A3F8E0C5F025F0F0E58215827002158303
:0616AA00E0C838F0E82260
:100F3E00E5102493F582E43400F583E00510229049
:100F4E000090300703900093E475F0011216C20270
:100F5E0015ED2000E97F2ED2008018EF540F24905B
:100F6E00D43440D4FF30040BEF24BFB41A00500326
:100F7E002461FFE511600215110514E514700205D8
:100F8E001330070E900090E475F0011216C2EF02B6
:100F9E0016B00220B17403D2078003E4C207F51025
:100FAE009000901216D9E4F511F513F514E51160C1
:100FBE00077F20120F8180F57512FFC201C200C299
:100FCE0002C203C205C206C208120F4DFF700D30D9
:100FDE0007057F00120F92AF14AE1322B4255FC225
:100FEE00D5C204120F4DFF24D0B40A00501A75F06A
:100FFE000A781130D50508B6FF0106C6A426F620DC
:10100E00D5047002D20380D924CFB41A00EF500455
:10101E00C2E5D204021193D20180C6D20080C0D2A2
:10102E000280BCD2D580BAD20580B47F20120F8147
:10103E002002077401B5110040F1120F3EFF120F8E
:10104E0081020FBBD208D2068095120F3EFB120F03
:10105E003EFA120F3EF94A4B700679647A127BFF04
:10106E0020022EE511602A7E008E827583001216F4
:10107E000660060EEE651270F0C2D5EBC0E0EAC057
:10108E00E0E9C0E0EE1211DAD0E0F9D0E0FAD0E0FB
:10109E00FB1215EDFF60AAEBC0E0EAC0E0E9C0E08C
:1010AE00120F81D0E02401F9D0E03400FAD0E0FB39
:1010BE00E5120460DCD512D980877BFF7A1179D6D0
:1010CE00D202809C791080027908C206C20880087C
:1010DE00D2D5790A8004790AC2D5E512047002F5D8
:1010EE0012E4FAFDFEFF120F3EFC7B0820011312E4
:1010FE000F3EFD7B1030000A120F3EFE120F3EFF18
:10110E007B20EC3382D592D55013C3E43000069F7A
:10111E00FFE49EFEE42001039DFDE49CFCE4CBF87D
:10112E00C201EC700CCFCECDCCE824F8F870F38071
:10113E0017C3EF33FFEE33FEED33FDEC33FCEB3331
:10114E00FB994002FB0FD8E9EB300105F8D0E0C463
:10115E0048B201C0E00AEC4D4E4F78207B0070C2C1
:10116E00EAB5120040BCC0E01211DCD0F0D0E02095
:10117E000104C4C0E0C4B201C0F0120F6AD0F0D5B1
:10118E00F0EB020FBB1216E210585310D258102972
:10119E004C10254210D64F10DE4410DE49103E434F
:0811AE0010E45510C84610C8FA
:1011B6004510C847128450102D2D10312E10542B77
:1011C600103523105220126D2A0FED480000104CE6
:1011D6003F3F3F00790AA2D5200314300509B91014
:1011E600020404B9080104A2D52006025001042015
:1011F60002689202B511005034C0E07F2030031916
:101206007F30A20272067205500F121233C202C25A
:1012160006C205C2087F30800F300503E9C0E01220
:101226000F81300503D0E0F9D0E0B511CC300517B9
:101236007F30B9100C120F817F583004077F7880F9
:1012460003B90803120F813002057F2D020F817F3B
:10125600202008F87F2B2006F322920280CF286EEA
:10126600756C6C2900D201120F3E3001F8C201786C
:101276001130D50108F6020FED2D50434958120FD3
:101286003E2403B405004001E490127F93120F72CE
:0D129600743A120F72D2037511040210D2C7
:1016B000BB010689828A83F0225002F722BBFE0119
:0216C000F32213
:1016C200F8E0FBA3A3E0F925F0F0E58215827002B1
:0716D2001583E0FA38F02255
:0916D900EBF0A3EAF0A3E9F02212
:1016E200D083D082F8E4937012740193700DA3A397
:1016F20093F8740193F5828883E4737402936860AB
:06170200EFA3A3A380DFAA
:00000001FF
