:03000000022023B8
:0C202300787FE4F6D8FD75812102206A68
:101A1E00676F20676F20676F200D0A006E6F77204B
:101A2E0070757368006F6C656420656E64200D0AB6
:101A3E0000753420696E697420656E640D0A00416C
:101A4E00542B43574A41503D225746343036222CB0
:101A5E00223430363430366E63657075220D0A00CE
:101A6E0041542B43574A41503D224D69203131227A
:101A7E002C227171717171717171220D0A00726176
:101A8E0063653A0D0A0041542B43574D4F44453D73
:101A9E00310D0A0041542B4349504D55583D300DE0
:101AAE000A0073656E643A0D0A41542B4349505334
:101ABE00544152543D22544350222C223139322E5D
:101ACE003136382E312E313037222C3132333435F7
:101ADE000D0A0065737020696E697420656E64204E
:101AEE000D0A006E6F772070757368203A200025FE
:101AFE0064000D0A7769666973656E646275666661
:101B0E00206973202573000D0A0073656E643A0D0B
:101B1E000A41542B43495053454E443D370D0A005C
:101B2E000D0A2D2D2D2D2D2D726163653A0D0A0096
:0C1B3E002B2B2B0068656C6C6F0D0A00EF
:0F1B4A0048012A23232323232323004101291A9F
:1021C6007FE812257B7FE812257B7FE812257B7F3F
:1021D600E812257B7FE812257B7FE812257B7FE8C6
:1021E60012257B7FE812257B7FE812257B7FE8128C
:0721F600257B7FE802257B39
:10131300E49000ECF0A3F078EE7C007D017BFF7A93
:101323001B7942FE7F081218DDE49000EAF0A3F077
:101333009000E9F09000E8F01222F61223B67BFF4A
:101343007A1A791E121019121D531222677BFF7A23
:101353001A792A9000FB740CF0E4FDFF1200267B3F
:10136300FF7A1A79331210191224AD7BFF7A1A7996
:101373003F1210197BFF7A1A794D1222347BFF7AC0
:101383001A796E1210191221C67BFF7A1A798C1200
:1013930010197B017A0079809000E6E0FCA3E0FD60
:1013A30012241C7FE812257BE49000E6F0A3F07B77
:1013B300FF7A1A79941222347BFF7A1A79941210E5
:1013C300191221C67BFF7A1A798C1210197B017AC4
:1013D3000079809000E6E0FCA3E0FD12241C7FD09E
:1013E30012257BE49000E6F0A3F07BFF7A1A79A242
:1013F3001222347BFF7A1A79A21210191221C67BAA
:10140300FF7A1A798C1210197B017A007980900087
:10141300E6E0FCA3E0FD12241C7FD012257BE490C0
:1014230000E6F0A3F07BFF7A1A79B01222347BFF37
:101433007A1A79B01210191221C67BFF7A1A798CA5
:101443001210197B017A0079809000E6E0FCA3E09A
:10145300FD12241C7FD012257B7BFF7A1A79E112BF
:1014630010197F6412257B1220AF9000E9EFF090F2
:1014730000E8E06F60ECA3E09000E8F07BFF7A1AED
:1014830079F1121019E49000EAF0A3F09000EAE079
:10149300FEA3E0FFC39407EE9400400302152990D6
:1014A30000E9E0FEA807088002C313D8FC30E03E41
:1014B3007BFF7A1A79FD9000EAE0FFA3E09000F940
:1014C300CFF0A3EFF01210199000EAE0FEA3E0FFC3
:1014D300FD2430FB742A2FF58274013EF583EBF073
:1014E300ED75F008A4FF900100740CF080229000C9
:1014F300EAE0FEA3E0FF242AF58274013EF583743B
:1015030023F0EF75F008A4FF900100740CF07B202A
:101513007D04121C539000EBE004F070069000EA87
:10152300E004F002148F9000F97401F0A37401F049
:10153300A3742AF07BFF7A1B79001210197BFF7AC0
:101543001B7915121019E49000E6F0A3F07BFF7AE3
:101553001B79181222349000E6E0FEA3E0FF24FE7C
:10156300EE34FFC3940040EE747E2FF58274003E88
:10157300F583E0B43EE07BFF7A1B792E1210197BD2
:10158300017A0079809000E6E0FCA3E0FD12241CC0
:10159300E49000E6F0A3F07B017A01792A12223469
:1015A3007FE812257B7BFF7A1B793E1222347FD0A2
:0615B30012257B02146505
:0F257B007D527C03ED1D70011C144C70F7DFF1D5
:01258A00222E
:1015B900EFD3940740037F0122121903FED394034A
:1015C90040037F0222EF7041EE700B900001121967
:1015D9001CF452935294121903B4010B9000011296
:1015E900191C4293F45294121903FEB4020A900092
:1015F9000112191C42934294EEB4030D900001129A
:10160900191CFEF45293EE4294EF640170431219CF
:1016190003FE700B90000112191CF452915292EEC4
:10162900B4010B90000112191C4291F45292121943
:1016390003B4020A90000112191C42914292121934
:1016490003B4030D90000112191CFEF45291EE42ED
:1016590092EF64027043121903FE700B900001129D
:10166900191CF452955296EEB4010B90000112190F
:101679001C4295F45296121903B4020A9000011201
:10168900191C42954296121903B4030D90000112D8
:10169900191CFEF45295EE4296EF64037043121939
:1016A90003FE700B90000112191CF452B152B2EEF4
:1016B900B4010B90000112191C42B1F452B2121973
:1016C90003B4020A90000112191C42B142B2121964
:1016D90003B4030D90000112191CFEF452B1EE423D
:1016E900B2EF64047043121903FE700B90000112EB
:1016F900191CF452B352B4EEB4010B900001121943
:101709001C42B3F452B4121903B4020A9000011234
:10171900191C42B342B4121903B4030D900001120B
:10172900191CFEF452B3EE42B4EF6405704312196A
:1017390003FE700B90000112191CF452C952CAEE33
:10174900B4010B90000112191C42C9F452CA1219B2
:1017590003B4020A90000112191C42C942CA1219A3
:1017690003B4030D90000112191CFEF452C9EE4294
:10177900CAEF64067043121903FE700B9000011240
:10178900191CF452CB52CCEEB4010B900001121982
:101799001C42CBF452CC121903B4020A9000011274
:1017A900191C42CB42CC121903B4030D900001124B
:1017B900191CFEF452CBEE42CCEF640770431219A8
:1017C90003FF700B90000112191CF452E152E2EF71
:1017D900B4010B90000112191C42E1F452E21219F2
:1017E90003B4020A90000112191C42E142E21219E3
:1017F90003B4030D90000112191CFFF452E1EF42EA
:04180900E27F002258
:06254800D2FF7F017E00BE
:0B254E00EF1FAC0670011E4C70F6225F
:0D008600D2FD122548C2FD12254AC2FF22FC
:10253500C2FFC2FD12254A122548D2FD7F017E0049
:0325450002254E1E
:10255900EF24FF92FD122548C2FF7F017E0002256C
:012569004E23
:1024C500E4FDD2FF7F01FE12254EA2FDE433FDC2DD
:0624D500FF12254AAF05CD
:0124DB0022DE
:1023D900E4AD07FBED30E704D2FD8002C2FD122512
:1023E90048C2FF12254AED25E0FD0BEBB408E502D2
:0223F90024C5F9
:10000300E4FDD2FDFBED25E0FD122548A2FDE4331E
:0E0013004DFDC2FF12254A0BEBB408E9AF0504
:0100210022BC
:10249400AA05A9071200867FD01223D9AF011223FF
:0924A400D9AF021223D90225353B
:02232100AA0709
:102323001200867FD01223D9AF021223D91200865E
:102333007FD11223D9120003AD077F011225591251
:042343002535AF0588
:012347002273
:10239300E4FD7F6B1224947D077F191224947D063C
:1023A3007F1A1224947D187F1B1224947D017F1CB5
:0323B3000224946D
:02247700A907B3
:10247900122321900148EFF0E904FF122321AD074F
:0A248900E0FE7C00E42DFFEC3EFEB7
:012493002226
:1022F600E49000F6F0A3747CF07B017A0079F67F17
:10230600031215B99000F77403F07B017A0079F691
:0A2316007F051215B9E4900000F0F5
:01232000229A
:1020AF00900000E030B20554FEF080034401F09040
:1020BF000000E030B30554FDF080034402F09000BF
:1020CF0000E030B40554FBF080034404F0900000AE
:1020DF00E030C80554F7F080034408F0900000E0AA
:1020EF0030C90554EFF080034410F0900000E03049
:1020FF00B50554DFF080034420F0900000E030B6C7
:0F210F000554BFF080034440F0900000E0FF2231
:100096000000000000000000002F00000000070024
:1000A600070000147F147F1400242A7F2A1200629E
:1000B600640813230036495522500000050300004A
:1000C60000001C224100000041221C000014083ED2
:1000D60008140008083E0808000000A06000000898
:1000E60008080808000060600000002010080402EC
:1000F600003E5149453E0000427F400000426151AA
:100106004946002141454B31001814127F10002743
:1001160045454539003C4A49493000017109050306
:1001260000364949493600064949291E0000363637
:10013600000000005636000000081422410000149A
:100146001414141400004122140800020151090677
:1001560000324959513E007C1211127C007F4949F8
:100166004936003E41414122007F4141221C007F29
:1001760049494941007F09090901003E4149497A37
:10018600007F0808087F0000417F410000204041B1
:100196003F01007F08142241007F40404040007F1D
:1001A600020C027F007F0408107F003E4141413E61
:1001B600007F09090906003E4151215E007F0919A9
:1001C60029460046494949310001017F0101003FA6
:1001D6004040403F001F2040201F003F4038403F26
:1001E600006314081463000708700807006151498A
:1001F600454300007F41410000552A552A5500001D
:1002060041417F000004020102040040404040409A
:10021600000001020400002054545478007F484432
:10022600443800384444442000384444487F003869
:100236005454541800087E0901020018A4A4A47C92
:10024600007F080404780000447D4000004080845C
:100256007D00007F102844000000417F4000007CA4
:1002660004180478007C08040478003844444438B0
:1002760000FC242424180018242418FC007C0804FC
:10028600040800485454542000043F444020003CD5
:100296004040207C001C2040201C003C4030403C5C
:1002A600004428102844001CA0A0A07C00446454EC
:1002B6004C44141414141414000000000000000030
:1002C6000000000000000000000000F80000000030
:1002D600000000333000000000100C06100C060071
:1002E600000000000000000040C07840C0784000D8
:1002F600043F04043F040400007088FC083000003A
:10030600001820FF211E0000F008F000E018000091
:1003160000211C031E211E0000F00888700000004A
:100326001E2123241927211010160E00000000009C
:100336000000000000000000000000E018040200B9
:10034600000000071820400000020418E00000002A
:100356000040201807000000404080F08040400028
:100366000202010F01020200000000F0000000007E
:100376000101011F01010100000000000000000052
:1003860080B07000000000000000000000000000C7
:100396000001010101010101000000000000000050
:1003A60000303000000000000000000080601804EB
:1003B600006018060100000000E010080810E000C8
:1003C600000F102020100F00001010F80000000091
:1003D6000020203F202000000070080808887000D8
:1003E6000030282422213000003008888848300058
:1003F6000018202020110E000000C02010F8000078
:1004060000070424243F240000F808888808080010
:100416000019212020110E0000E010888818000025
:10042600000F112020110E0000380808C8380800F7
:100436000000003F00000000007088080888700077
:10044600001C222121221C0000E010080810E000F8
:100456000000312222110F00000000C0C000000081
:1004660000000030300000000000008000000000A6
:10047600000080600000000000008040201008009E
:100486000001020408102000404040404040400067
:100496000404040404040400000810204080000042
:1004A6000020100804020100007048080808F00047
:1004B6000000003036010000C030C828E810E00017
:1004C6000718272423140B000000C038E0000000A2
:1004D600203C23020227382008F88888887000000C
:1004E600203F202020110E00C030080808083800E0
:1004F600071820202010080008F808080810E00057
:10050600203F202020100F0008F88888E8081000F7
:10051600203F20202320180008F88888E8081000CB
:10052600203F200003000000C03008080838000003
:1005360007182020221E020008F808000008F80804
:10054600203F210101213F20000808F8080800008B
:100556000020203F2020000000000808F8080800BE
:10056600C08080807F00000008F888C02818080036
:10057600203F20012638200008F80800000000006F
:10058600203F20202020300008F8F800F8F8080066
:10059600203F003F003F200008F830C00008F80860
:1005A600203F200007183F00E01008080810E00070
:1005B6000F10202020100F0008F808080808F00087
:1005C600203F210101010000E01008080810E000AA
:1005D6000F18242438504F0008F88888888870003F
:1005E600203F2000030C30200070880808083800DF
:1005F6000038202121221C00180808F808081800D5
:100606000000203F2000000008F808000008F80855
:10061600001F202020201F000878880000C8380806
:10062600000007380E010000F80800F80008F8007E
:10063600033C0700073C0300081868808068180818
:1006460020302C03032C30200838C800C838080096
:100656000000203F2000000010080808C8380800E5
:100666002038262120201800000000FE0202020089
:100676000000007F40404000000C30C00000000039
:10068600000000010638C00000020202FE00000061
:10069600004040407F000000000004020202040007
:1006A6000000000000000000000000000000000044
:1006B600808080808080808000020204000000002C
:1006C6000000000000000000000080808080000024
:1006D6000019242222223F2008F800808000000012
:1006E600003F112020110E000000008080800000D5
:1006F600000E112020201100000000808088F800E4
:10070600000E112020103F20000080808080000015
:10071600001F222222221300008080F08888881879
:100726000020203F20200000000080808080800084
:10073600006B94949493600008F800808080000019
:10074600203F210000203F200080989800000000F4
:100756000020203F20200000000000809898000024
:1007660000C08080807F000008F800008080800044
:10077600203F24022D302000000808F80000000069
:100786000020203F20200000808080808080800024
:10079600203F20003F20003F8080008080800000B6
:1007A600203F210000203F20000080808080000044
:1007B600001F202020201F00808000808000000075
:1007C60080FFA12020110E000000008080808000A4
:1007D600000E112020A0FF80808080008080800095
:1007E60020203F21200001000000808080808000C2
:1007F6000033242424241900008080E08080000037
:100806000000001F20200000808000000080800083
:10081600001F202020103F208080800000808080E4
:1008260000010E3008060100808000800080808074
:100836000F300C030C300F00008080008080800099
:100846000020312E0E3120008080800000808080C4
:1008560080818E7018060100008080808080800074
:100866000021302C2221300000000000807C020292
:1008760000000000003F404000000000FF000000B4
:1008860000000000FF0000000002027C8000000063
:100896000040403F0000000000060101020204047F
:1008A6000000000000000000201008FC03202010BB
:1008B6007F88888482E000000000000000000000BD
:1008C600000000000000000004040405040404FF06
:1008D60004040404040404000000000000000000F6
:1008E60000000000000000000020202020FF000083
:1008F60000FF40201008000000000000000000007B
:1009060000000000000000002060201010FF000022
:10091600003F40404040780000000000000000001A
:1009260000000000000000000000F888888888FFAA
:1009360088888888F8000000000000000000000099
:10094600000000000000000000001F080808087FE3
:10095600888888889F80F000000000000000000062
:100966000000000000000000001010101010FF1022
:1009760010101010F0000000000000000000000041
:100986000000000000000000008040201806010062
:10099600204080403F0000000000000000000000F2
:1009A600000000000000000020202020202020FF62
:1009B6002020202020202000000000000000000051
:1009C600000000000000000080804020100C0300A2
:1009D600030C102040808000000000000000000092
:1009E60000000000000000004030119690909196A3
:1009F6009090981413503000000000000000000092
:100A06000000000000000000040404040444847E86
:100A160006050404040404000000000000000000B1
:100A260000000000000000000000F8494A4C48F8A9
:100A3600484C4A49F8000000000000000000000091
:100A4600000000000000000010101312121212FF26
:100A56001212121213101000000000000000000015
:100A66000000000000000000000000FE2020202002
:100A7600203F202020200000000000000000000091
:100A860000000000000000000080601F0202020259
:100A96000202FE000000000000000000000000004E
:100AA60000000000000000001010D0FF901000FEB3
:100AB600020202FE0000000000000000000000002C
:100AC6000000000000000000040300FF0083601F18
:100AD6000000003F404078000000000000000000D9
:100AE6000000000000000000100C048414640506D9
:100AF600F404040404140C000000000000000000CC
:100B06000000000000000000048484444724140C04
:100B1600070C1424448404000000000000000000B8
:100B2600000000000000000002FA8282FE804020E1
:100B3600504C434C502040000000000000000000D4
:100B4600000000000000000008184884443F4044AC
:100B560058414E6058474000000000000000000069
:100B6600000000000000000000020212620202FE05
:100B760002024232020200000000000000000000F3
:100B8600000000000000000001010101010101FF59
:100B96000101010101010100000000000000000048
:100BA60000000000000000000040E05048444340C0
:100BB6004040485060C000000000000000000000F7
:100BC6000000000000000000000000FE4242424219
:100BD600424242FE0000000000000000000000004B
:100BE6000000000000000000000202C2020202FE35
:100BF6008282828282020000000000000000000063
:100C060000000000000000004040407F4040407F60
:100C1600404040404040400000000000000000000E
:100C26000000000000000000080888C8380C0B0807
:100C360008E8080808080800000000000000000096
:100C46000000000000000000020100FF4041414199
:100C5600417F41414141400000000000000000008A
:100C6600000000000000000080828282FE828282F4
:100C76008282FE8282828000000000000000000066
:100C86000000000000000000008040300F0000005F
:100C96000000FF000000000000000000000000004F
:100CA60000000000000000001010D0FF901000FEB1
:100CB600020202FE0000000000000000000000002A
:100CC6000000000000000000040300FF0083601F16
:100CD6000000003F404078000000000000000000D7
:100CE60000000000000000002010E824272424E46F
:100CF60024342C20E000000000000000000000006A
:100D0600000000000000000080601F090909097F3B
:100D1600090949897F00000000000000000000006A
:100D260000000000000000000000FC242424FC2534
:100D36002624FC24242404000000000000000000F7
:100D4600000000000000000040308F80844C5525D4
:100D56002525554C80808000000000000000000022
:100D66000000000000000000101010FF1010F0003E
:100D760000F8080808F80000000000000000000065
:100D860000000000000000008040300F40807F001F
:100D9600007F2020207F00000000000000000000EF
:100DA6000000000000000000404042CC0004F49423
:100DB60094FF9494F404000000000000000000007A
:100DC60000000000000000000040201F20484442B0
:100DD600415F41424448400000000000000000001E
:100DE60000000000000000000000FC242424FC2574
:100DF6002624FC2424240400000000000000000037
:100E0600000000000000000040308F80844C552513
:100E16002525554C80808000000000000000000061
:100E26000000000000000000002018C744444444AD
:100E3600FC4444444404000000000000000000009C
:100E46000000000000000000040404070404040479
:100E5600FF04040404040400000000000000000075
:100E66000000000000000000000000FE22222222F6
:100E760022222222FE0000000000000000000000E6
:100E860000000000000000008040300F0202020255
:100E9600020242827F000000000000000000000005
:100EA6000000000000000000000000FE8282828236
:100EB600828282FE000000000000000000000000A8
:100EC6000000000000000000000000FF404040401D
:100ED600404040FF0000000000000000000000004D
:100EE600000000000000000000FC848484FC001068
:100EF60010101010FF10100000000000000000008D
:100F06000000000000000000003F1010103F00002D
:100F1600010640807F000000000000000000000085
:100F2600000000000000000080402090888680803D
:100F360080838C102040800000000000000000002C
:100F4600000000000000000000804020180700405C
:100F560080403F000000000000000000000000008C
:100F660000000000000000002424A4FE232200C08C
:100F76003800FF00081060000000000000000000BC
:100F86000000000000000000080601FF0106818045
:100F9600404027100C030000000000000000000085
:080FA600000000000000000043
:06256A00D2C57F017E00D6
:0B257000EF1FAC0670011E4C70F6223D
:0F258B00D2C5D2C612256CC2C612256CC2C5229B
:0D25C400C2C5C2C612256C12256AD2C622FD
:0B24DC0012234F1224E7AF0212234F1F
:0C24E70012256AC2C57F017E000225702C
:07234800AA0712258B7F7824
:10234F00AD07E4FBED30E704D2C68002C2C612250A
:0F235F006AC2C512256CED25E0FD0BEBB408E555
:01236E00224C
:0E259A001223481224E7E4FF1224DC0225C4B9
:0E25A8001223481224E77F401224DC0225C4CF
:1023FB00EF24B0FFE4FD12240EE4FDFF12240EE4E3
:03240B00FD7F1042
:0E240E00A907ED60030225A8AF0112259A224E
:0521FD00900140EFF02D
:10220200E4A3F0900141E0FFC3940850241223FBA1
:10221200E4A3F0900140E0FF7D0112240E90014200
:10222200E004F0E0C3948040EA900141E004F080D1
:01223200D2D9
:012233002288
:10243B00D3EF9400EE940040147D657C18ED1D7075
:0D244B00011CED4C70F7EF1F70E61E80E3E2
:012458002261
:10250A00EF1FAA0670011E4A600BE4FDEDC3947B1F
:05251A0050EE0D80F7FA
:01251F002299
:0822C9009000FDE0FFA3E0FD21
:1022D100900103EFF0ED24B0FFE4FD12240EE05471
:1022E100F0C4540F4410FFE4FD12240EE0540FFF1C
:0522F100E4FD02240ED3
:10252000E4FD7F8D12240EE4FD7F1412240EE4FDE1
:052530007FAF02240E44
:0E25B600E4FD7F8D122407E4FD7FAE02240EAB
:10226700E49000F6F09000F6E0FFC39408502112C6
:1022770023FBE4A3F07D01E4FF12240E9000F7E0B6
:1022870004F0E0C3948040ED9000F6E004F080D5C0
:012297002224
:10229800E4900146F0900146E0FFC39408502112F3
:1022A80023FBE4A3F07D017F0112240E900147E097
:1022B80004F0E0C3948040ED900146E004F080D53E
:0122C80022F3
:0B1C53009000FEEDF09000FDEFF0FDB2
:101C5E00E4900101F0A3F0EB24E0900101F0EDD34C
:101C6E00947F400AE49000FDF0A3E02402F090017E
:101C7E0000E064106003021D0C1222C9E490010200
:101C8E00F0900102E0FFC39408502C900101E07522
:101C9E00F010A42FF582E435F0F583E58224BEF52D
:101CAE0082E5833402F583E493FF7D0112240E90C6
:101CBE000102E004F080CA9000FDE0FFA3E004FD05
:101CCE001222D1E4900102F0900102E0FFC39408C9
:101CDE005072900101E075F010A42FF582E435F0FA
:101CEE00F583E58224C6F582E5833402F583E49319
:101CFE00FF7D0112240E900102E004F080CA9001D3
:101D0E0000E0640C703E1222C9E4900102F09001D2
:101D1E0002E0FFC39406502C900101E075F006A47A
:101D2E002496F582E5F03400F583E5822FF582E402
:101D3E003583F583E493FF7D0112240E900102E0BA
:041D4E0004F080CA53
:011D5200226E
:07245900900149EFF0A90515
:102460007F017E00AD0119ED600C900149E0FD7C1B
:062470000012194980EE84
:012476002243
:0E1E2B00900132EFF0A3EDF0A3EAF0A3EBF08C
:101E3900E490013AF0900138F0900136E0FF90010A
:101E490038E0FEC39F4003021EE5C3EF9E14FD7FE9
:101E59000A122459900134E0FCA3E0FDCFCDCFCE86
:101E6900CCCE12195B7C007D0A12195B900139ED09
:101E7900F0A3E07036900136E014FF900138E0FEDF
:101E8900C39F5027A3E0701D900137E0FCC3138E58
:101E9900F0A4FF900132E02FFFA3E0FD900100ECD8
:101EA900F07B20802B90013A7401F0900137E0FE1D
:101EB900C313FFA3E0FDEF8DF0A4FF900132E02FE3
:101EC900FFA3E0FD900139E02430FB900100EEF022
:0C1ED900121C53900138E004F0021E427D
:011EE50022DA
:100026009000F6EFF0A3EDF0A3EBF0A3EAF0A3E95E
:01003600F0D9
:10003700E49000FCF09000F8E0FBA3E0FAA3E0F9FD
:100047009000FCE0F58275830012191CFB602F906D
:1000570000F6E0FFA3E0FD9000FBE0900100F01246
:100067001C539000F6E02408F0E0D394784007E4AE
:0E007700F0A3E02402F09000FCE004F080B75B
:010085002258
:0D1EE60090013DEBF090013BEFF0A3EDF01B
:101EF300E490013FF01222D1E490013EF090013EC4
:101F0300E0FFC39410503290013DE075F040A424EB
:101F1300AEF582E5F03408F583E5822FF582E435EA
:101F230083F583E493FF7D0112240E90013FE004C7
:101F3300F090013EE004F080C490013BE0FFA3E099
:101F430004FD1222D1E490013EF090013EE0FFC374
:101F53009410503290013DE075F040A424CEF582F8
:101F6300E5F03408F583E5822FF582E43583F583C4
:101F7300E493FF7D0112240E90013FE004F09001F1
:061F83003EE004F080C402
:011F89002235
:0A1F8A0090011EEFF0900120EBF033
:101F9400E4900125F0A3F0900120E004F0A3E00414
:101FA400F0E0FF54077008EF131313541F800A90D6
:101FB4000121E0131313541F04900128F090012809
:101FC400EDF0900121E0FF900128E0FDC39F504E09
:101FD40090011EE0FF1222D190011EE0900127F033
:101FE400900120E0FF900127E0C39F502990012237
:101FF400E0FBA3E0FAA3E0F9A3E475F0011219B041
:1020040085F082F58312191CFF7D0112240E9001C4
:0E20140027E004F080CA900128E004F080A4C8
:01202200229B
:101D53009000F67403F0A37420F07B017A0079F607
:101D63007F041215B99000F67402F0A37440F07B5F
:101D7300017A0079F67F041215B9E4FD7FAE1224CF
:101D830001E4FD7F4012240EE4FD7FB012240EE433
:101D9300FD7F8112240EE4FD7FFF12240EE4FD7FFC
:101DA300A112240EE4FD7FA612240EE4FD7FA812E7
:101DB300240EE4FD7F3F12240EE4FD7FC812240E9F
:101DC300E4FD7FD312240EE4FDFF12240EE4FD7F15
:101DD300D512240EE4FD7F8012240EE4FD7FD81279
:101DE300240EE4FD7F0512240EE4FD7FD912240E98
:101DF300E4FD7FF112240EE4FD7FDA12240EE4FDEC
:101E03007F1212240EE4FD7FDB12240EE4FD7F30EB
:101E130012240EE4FD7F8D12240EE4FD7F141224A0
:081E23000EE4FD7FAF02240E66
:101B5900608000000000000000000000000000009C
:101B6900000000000000000000000000000000006C
:101B7900000000000000000000000000000000005C
:101B8900000000000000000000000000000000004C
:101B9900000000000000000000000000000000003C
:101BA900000000000000000000000000000000002C
:101BB900000000000000000000000000000000001C
:101BC900000000000000000000000000000000000C
:101BD900000000004100E4004100E500606400806D
:101BE90000000000000000000000000000000000EC
:101BF90000000000000000000000000000000000DC
:101C090000000000000000000000000000000000CB
:101C190000000000000000000000000000000000BB
:101C290000000000000000000000000000000000AB
:101C3900000000000000000000000000000000009B
:091C4900000000004200E600006A
:1023B600E5A2543FF5A2E598543F4440F59875D7F9
:1023C600E875D6FF758E14438E01D2BCD2ACD29C72
:0323D600D2AF2261
:0300230002217C3B
:0B217C00C0E0C083C082C0D075D00856
:1021870030982CC298AF999000E4E0C39480501027
:10219700E0FE04F074002EF582E43400F583EFF0DE
:1021A700EFB40D0B9000E57401F09000E4E4F0301B
:0621B7009904C299C2095F
:0921BD00D0D0D082D083D0E032F2
:0F24F300A3E475F0011219B0A9F0FA121903FF52
:082502002009FDD2098F992286
:10241C009000F6EBF0A3EAF0A3E9F0ED4C600F901E
:0F242C0000F6E0FB1224F3ED1D70F01C80ED2292
:0C25D100C2AC8F993099FDC299D2AC22A7
:10236F00900143EBF0A3EAF0A3E9F0900143E0FB07
:10237F00A3E0FAA3E0F912190360089001431224B5
:04238F00F380E822CD
:1024AD0043BA0475845075D3E875D2FF43D12043E8
:0824BD00D18075AF10D2AF22EF
:0300930002211E29
:10211E00C0E0C083C082C0D075D000C006E5843058
:10212E00E0375384FE9000E6E0FEA3E02480F582C3
:10213E0074003EF583E585F09000E7E004F070064C
:10214E009000E6E004F0C39000E7E094649000E6AF
:10215E00E094004004E4F0A3F0E58430E1055384FC
:0E216E00FDC20AD006D0D0D082D083D0E0329D
:0B25DD005384F7D20A8F85200AFD22EC
:102234009000F6EBF0A3EAF0A3E9F09000F6E0FBDF
:10224400A3E0FAA3E0F912190360179000F6A3E4DF
:1022540075F0011219B0A9F0FA121903FF1225DD65
:0322640080D922FC
:10202F00021313E493A3F8E493A34003F68001F2A1
:10203F0008DFF48029E493A3F85407240CC8C333B2
:10204F00C4540F4420C8834004F456800146F6DF81
:10205F00E4800B0102040810204080901B4AE47EAC
:10206F00019360BCA3FF543F30E509541FFEE49376
:10207F00A360010ECF54C025E060A840B8E493A33D
:10208F00FAE493A3F8E493A3C8C582C8CAC583CA68
:10209F00F0A3C8C582C8CAC583CADFE9DEE780BE20
:011C52000091
:10180D00E709F608DFFA8046E709F208DFFA803EBD
:10181D0088828C83E709F0A3DFFA8032E309F608AA
:10182D00DFFA8078E309F208DFFA807088828C8312
:10183D00E309F0A3DFFA806489828A83E0A3F608C6
:10184D00DFFA805889828A83E0A3F208DFFA804CA0
:10185D0080D280FA80C680D4806980F28033801077
:10186D0080A680EA809A80A880DA80E280CA8033E0
:10187D0089828A83ECFAE493A3C8C582C8CCC58358
:10188D00CCF0A3C8C582C8CCC583CCDFE9DEE78028
:10189D000D89828A83E493A3F608DFF9ECFAA9F0A7
:1018AD00EDFB2289828A83ECFAE0A3C8C582C8CCFD
:1018BD00C583CCF0A3C8C582C8CCC583CCDFEADE16
:1018CD00E880DB89828A83E493A3F208DFF980CC78
:1018DD0088F0EF60010E4E60C388F0ED2402B40471
:1018ED000050B9F582EB2402B4040050AF23234518
:0618FD00822390185D73C8
:10190300BB010689828A83E0225002E722BBFE02E2
:09191300E32289828A83E4932215
:10191C00BB010CE58229F582E5833AF583E0225080
:10192C0006E92582F8E622BBFE06E92582F8E222CA
:0D193C00E58229F582E5833AF583E49322E4
:10194900EF8DF0A4A8F0CF8CF0A428CE8DF0A42EB2
:02195900FE226C
:10195B00BC000BBE0029EF8DF084FFADF022E4CC70
:10196B00F875F008EF2FFFEE33FEEC33FCEE9DEC39
:10197B00984005FCEE9DFE0FD5F0E9E4CEFD22ED7F
:10198B00F8F5F0EE8420D21CFEADF075F008EF2FC9
:10199B00FFED33FD4007985006D5F0F222C398FDBA
:0519AB000FD5F0EA2257
:1019B000A3F8E0C5F025F0F0E582158270021583EA
:0619C000E0C838F0E82247
:100FAE00E51024F9F582E43400F583E00510229073
:100FBE0000F63007039000F9E475F0011219D8021B
:100FCE0019032000E97F2ED2008018EF540F2490D1
:100FDE00D43440D4FF30040BEF24BFB41A005003B6
:100FEE002461FFE511600215110514E51470020568
:100FFE001330070E9000F6E475F0011219D8EF02C7
:10100E0019C60225D17403D2078003E4C207F51076
:10101E009000F61219EFE4F511F513F514E51160D1
:10102E00077F20120FF180F57512FFC201C200C2B8
:10103E0002C203C205C206C208120FBDFF700D30F8
:10104E0007057F00121002AF14AE1322B4255FC243
:10105E00D5C204120FBDFF24D0B40A00501A75F089
:10106E000A781130D50508B6FF0106C6A426F6206B
:10107E00D5047002D20380D924CFB41A00EF5004E5
:10108E00C2E5D204021203D20180C6D20080C0D2C1
:10109E000280BCD2D580BAD20580B47F20120FF167
:1010AE002002077401B5110040F1120FAEFF120FAE
:1010BE00F102102BD208D2068095120FAEFB120F42
:1010CE00AEFA120FAEF94A4B700679D47A127BFF44
:1010DE0020022EE511602A7E008E82758300121981
:1010EE001C60060EEE651270F0C2D5EBC0E0EAC0D1
:1010FE00E0E9C0E0EE12124AD0E0F9D0E0FAD0E01A
:10110E00FB121903FF60AAEBC0E0EAC0E0E9C0E001
:10111E00120FF1D0E02401F9D0E03400FAD0E0FB58
:10112E00E5120460DCD512D980877BFF7A127946EE
:10113E00D202809C791080027908C206C20880080B
:10114E00D2D5790A8004790AC2D5E512047002F567
:10115E0012E4FAFDFEFF120FAEFC7B082001131203
:10116E000FAEFD7B1030000A120FAEFE120FAEFF57
:10117E007B20EC3382D592D55013C3E43000069F0A
:10118E00FFE49EFEE42001039DFDE49CFCE4CBF80D
:10119E00C201EC700CCFCECDCCE824F8F870F38001
:1011AE0017C3EF33FFEE33FEED33FDEC33FCEB33C1
:1011BE00FB994002FB0FD8E9EB300105F8D0E0C4F3
:1011CE0048B201C0E00AEC4D4E4F78207B0070C251
:1011DE00EAB5120040BCC0E012124CD0F0D0E020B4
:1011EE000104C4C0E0C4B201C0F0120FDAD0F0D5D1
:1011FE00F0EB02102B1219F810C853114258109927
:10120E004C10954211464F114E44114E4910AE43AB
:08121E00115455113846113836
:101226004511384712F450109D2D10A12E10C42BD5
:1012360010A52310C22012DD2A105D48000010BC44
:101246003F3F3F00790AA2D5200314300509B910A3
:10125600020404B9080104A2D520060250010420A4
:1012660002689202B511005034C0E07F20300319A5
:101276007F30A20272067205500F1212A3C202C27A
:1012860006C205C2087F30800F300503E9C0E012B0
:101296000FF1300503D0E0F9D0E0B511CC300517D9
:1012A6007F30B9100C120FF17F583004077F788019
:1012B60003B90803120FF13002057F2D020FF17FEB
:1012C600202008F87F2B2006F322920280CF286E7A
:1012D600756C6C2900D201120FAE3001F8C201788C
:1012E6001130D50108F602105D2D50434958120FF2
:1012F600AE2403B405004001E49012EF93120FE20E
:0D130600743A120FE2D20375110402114275
:1019C600BB010689828A83F0225002F722BBFE0100
:0219D600F322FA
:1019D800F8E0FBA3A3E0F925F0F0E5821582700298
:0719E8001583E0FA38F0223C
:0919EF00EBF0A3EAF0A3E9F022F9
:1019F800D083D082F8E4937012740193700DA3A37E
:101A080093F8740193F5828883E473740293686091
:061A1800EFA3A3A380DF91
:00000001FF
