:030000000205C234
:0C05C200787FE4F6D8FD7581210206095F
:1007010068656C6C6F776F726C64202564200D0ACC
:100711000068656C6C6F20746F6F0D0A0068656C02
:050721006C6F0D0A00E1
:10064E0078847C007D017BFF7A07791E7E007F080F
:10065E0012045BE4900082F0A3F012074A7FC812E6
:10066E0007997BFF7A077901900082E475F00112F9
:10067E00049AAFF090008FF0A3EFF01200917FC8B4
:10068E001207997BFF7A0779121207267FC8120785
:10069E00997B017A007984120784AC06AD077B0141
:0906AE007A00798412000380B483
:0F0799007D527C03ED1D70011C144C70F7DFF1D5
:0107A800222E
:1005350060800000000000000000000000000000D6
:1005450000000000000000000000000000000000A6
:100555000000000000000000000000000000000096
:100565000000000000000000000000000000000086
:100575000000000000000000000000000000000076
:100585000000000000000000000000000000000066
:100595000000000000000000000000000000000056
:1005A5000000000000000000000000000000000046
:0C05B500000000004100800041008100B7
:10074A00E5A2543FF5A2E598543F4440F59875D781
:10075A00E875D6FF758E14438E01D2BCD2ACD29CFA
:03076A00D2AF22E9
:030023000206B71B
:0B06B700C0E0C083C082C0D075D00836
:1006C20030982CC298AF99900080E0C3948050106B
:1006D200E0FE04F074002EF582E43400F583EFF0BE
:1006E200EFB40D0B9000817401F0900080E4F030C3
:0606F2009904C299C2093F
:0906F800D0D0D082D083D0E032D2
:0F076D00A3E475F00112049AA9F0FA120481FFB7
:08077C002009FDD2098F99222A
:1000030090008CEBF0A3EAF0A3E9F0ED4C600F90C5
:0F001300008CE0FB12076DED1D70F01C80ED22DC
:0C07A900C2AC8F993099FDC299D2AC22ED
:1007260090008CEBF0A3EAF0A3E9F090008CE0FBDC
:10073600A3E0FAA3E0F9120481600890008C120786
:040746006D80E822B8
:1005CE0002064EE493A3F8E493A34003F68001F2EF
:1005DE0008DFF48029E493A3F85407240CC8C3332E
:1005EE00C4540F4420C8834004F456800146F6DFFD
:1005FE00E4800B0102040810204080900535E47E53
:10060E00019360BCA3FF543F30E509541FFEE493F1
:10061E00A360010ECF54C025E060A840B8E493A3B8
:10062E00FAE493A3F8E493A3C8C582C8CAC583CAE3
:10063E00F0A3C8C582C8CAC583CADFE9DEE780BE9B
:0105C1000039
:10038B00E709F608DFFA8046E709F208DFFA803E54
:10039B0088828C83E709F0A3DFFA8032E309F60841
:1003AB00DFFA8078E309F208DFFA807088828C83A9
:1003BB00E309F0A3DFFA806489828A83E0A3F6085D
:1003CB00DFFA805889828A83E0A3F208DFFA804C37
:1003DB0080D280FA80C680D4806980F2803380100E
:1003EB0080A680EA809A80A880DA80E280CA803377
:1003FB0089828A83ECFAE493A3C8C582C8CCC583EF
:10040B00CCF0A3C8C582C8CCC583CCDFE9DEE780BE
:10041B000D89828A83E493A3F608DFF9ECFAA9F03D
:10042B00EDFB2289828A83ECFAE0A3C8C582C8CC93
:10043B00C583CCF0A3C8C582C8CCC583CCDFEADEAC
:10044B00E880DB89828A83E493A3F208DFF980CC0E
:10045B0088F0EF60010E4E60C388F0ED2402B40407
:10046B000050B9F582EB2402B4040050AF232345AE
:06047B0082239003DB73F5
:10048100BB010689828A83E0225002E722BBFE0279
:09049100E32289828A83E49322AC
:10049A00A3F8E0C5F025F0F0E58215827002158315
:0604AA00E0C838F0E82272
:10002600E510248FF582E43400F583E00510229074
:10003600008C30070390008FE475F0011204EF0284
:1000460004812000E97F2ED2008018EF540F2490FF
:10005600D43440D4FF30040BEF24BFB41A0050034D
:100066002461FFE511600215110514E514700205FF
:100076001330070E90008CE475F0011204EFEF02C6
:1000860004DD0207A97403D2078003E4C207F51052
:1000960090008C120506E4F511F513F514E51160D0
:1000A600077F2012006980F57512FFC201C200C2E7
:1000B60002C203C205C206C208120035FF700D3027
:1000C60007057F0012007AAF14AE1322B4255FC273
:1000D600D5C204120035FF24D0B40A00501A75F0B8
:1000E6000A781130D50508B6FF0106C6A426F62003
:1000F600D5047002D20380D924CFB41A00EF50047D
:10010600C2E5D20402027BD20180C6D20080C0D2F0
:100116000280BCD2D580BAD20580B47F2012006995
:100126002002077401B5110040F1120026FF1200EB
:10013600690200A3D208D2068095120026FB12009F
:1001460026FA120026F94A4B7006794C7A037BFF91
:1001560020022EE511602A7E008E8275830012042D
:10016600B060060EEE651270F0C2D5EBC0E0EAC0D4
:10017600E0E9C0E0EE1202C2D0E0F9D0E0FAD0E049
:10018600FB120481FF60AAEBC0E0EAC0E0E9C0E030
:10019600120069D0E02401F9D0E03400FAD0E0FB87
:1001A600E5120460DCD512D980877BFF7A0279BE1E
:1001B600D202809C791080027908C206C2088008A3
:1001C600D2D5790A8004790AC2D5E512047002F5FF
:1001D60012E4FAFDFEFF120026FC7B082001131232
:1001E6000026FD7B1030000A120026FE120026FFB4
:1001F6007B20EC3382D592D55013C3E43000069FA2
:10020600FFE49EFEE42001039DFDE49CFCE4CBF8A4
:10021600C201EC700CCFCECDCCE824F8F870F38098
:1002260017C3EF33FFEE33FEED33FDEC33FCEB3358
:10023600FB994002FB0FD8E9EB300105F8D0E0C48A
:1002460048B201C0E00AEC4D4E4F78207B0070C2E8
:10025600EAB5120040BCC0E01202C4D0F0D0E020E3
:100266000104C4C0E0C4B201C0F0120052D0F0D5FF
:10027600F0EB0200A312050F01405301BA58011119
:100286004C010D4201BE4F01C64401C64901264339
:0802960001CC5501B04601B096
:10029E004501B047036C5001152D01192E013C2B61
:1002AE00011D23013A2003552A00D54800000134D0
:1002BE003F3F3F00790AA2D5200314300509B9103B
:1002CE00020404B9080104A2D5200602500104203C
:1002DE0002689202B511005034C0E07F203003193D
:1002EE007F30A20272067205500F12031BC202C2A9
:1002FE0006C205C2087F30800F300503E9C0E01248
:10030E000069300503D0E0F9D0E0B511CC30051707
:10031E007F30B9100C1200697F583004077F788047
:10032E0003B908031200693002057F2D0200697FB0
:10033E00202008F87F2B2006F322920280CF286E11
:10034E00756C6C2900D2011200263001F8C20178BA
:10035E001130D50108F60200D52D50434958120030
:10036E00262403B405004001E49003679312005A5B
:0D037E00743A12005AD2037511040201BA3C
:10078400E4FFFE120481600C0FEF70010E09E970A2
:05079400F20A80EF22D3
:1004B000BB010CE58229F582E5833AF583E0225001
:1004C00006E92582F8E622BBFE06E92582F8E2224B
:0D04D000E58229F582E5833AF583E4932265
:1004DD00BB010689828A83F0225002F722BBFE01FE
:0204ED00F322F8
:1004EF00F8E0FBA3A3E0F925F0F0E5821582700296
:0704FF001583E0FA38F0223A
:09050600EBF0A3EAF0A3E9F022F6
:10050F00D083D082F8E4937012740193700DA3A37B
:10051F0093F8740193F5828883E47374029368608F
:06052F00EFA3A3A380DF8F
:00000001FF
